{
  "_format": "hh-sol-artifact-1",
  "contractName": "BillingSystem",
  "sourceName": "contracts/BillingSystem.sol",
  "abi": [
    {
      "inputs": [
        {
          "internalType": "address",
          "name": "_sagaToken",
          "type": "address"
        },
        {
          "internalType": "address",
          "name": "_mcpPool",
          "type": "address"
        },
        {
          "internalType": "address",
          "name": "_dao",
          "type": "address"
        }
      ],
      "stateMutability": "nonpayable",
      "type": "constructor"
    },
    {
      "anonymous": false,
      "inputs": [
        {
          "indexed": true,
          "internalType": "uint256",
          "name": "paymentId",
          "type": "uint256"
        },
        {
          "indexed": true,
          "internalType": "address",
          "name": "payer",
          "type": "address"
        },
        {
          "indexed": true,
          "internalType": "address",
          "name": "provider",
          "type": "address"
        },
        {
          "indexed": false,
          "internalType": "uint256",
          "name": "amount",
          "type": "uint256"
        }
      ],
      "name": "PaymentProcessed",
      "type": "event"
    },
    {
      "anonymous": false,
      "inputs": [
        {
          "indexed": true,
          "internalType": "address",
          "name": "provider",
          "type": "address"
        },
        {
          "indexed": false,
          "internalType": "uint256",
          "name": "providerAmount",
          "type": "uint256"
        },
        {
          "indexed": false,
          "internalType": "uint256",
          "name": "platformAmount",
          "type": "uint256"
        },
        {
          "indexed": false,
          "internalType": "uint256",
          "name": "daoAmount",
          "type": "uint256"
        }
      ],
      "name": "RevenueDistributed",
      "type": "event"
    },
    {
      "anonymous": false,
      "inputs": [
        {
          "indexed": true,
          "internalType": "bytes32",
          "name": "role",
          "type": "bytes32"
        },
        {
          "indexed": true,
          "internalType": "bytes32",
          "name": "previousAdminRole",
          "type": "bytes32"
        },
        {
          "indexed": true,
          "internalType": "bytes32",
          "name": "newAdminRole",
          "type": "bytes32"
        }
      ],
      "name": "RoleAdminChanged",
      "type": "event"
    },
    {
      "anonymous": false,
      "inputs": [
        {
          "indexed": true,
          "internalType": "bytes32",
          "name": "role",
          "type": "bytes32"
        },
        {
          "indexed": true,
          "internalType": "address",
          "name": "account",
          "type": "address"
        },
        {
          "indexed": true,
          "internalType": "address",
          "name": "sender",
          "type": "address"
        }
      ],
      "name": "RoleGranted",
      "type": "event"
    },
    {
      "anonymous": false,
      "inputs": [
        {
          "indexed": true,
          "internalType": "bytes32",
          "name": "role",
          "type": "bytes32"
        },
        {
          "indexed": true,
          "internalType": "address",
          "name": "account",
          "type": "address"
        },
        {
          "indexed": true,
          "internalType": "address",
          "name": "sender",
          "type": "address"
        }
      ],
      "name": "RoleRevoked",
      "type": "event"
    },
    {
      "anonymous": false,
      "inputs": [
        {
          "indexed": true,
          "internalType": "address",
          "name": "account",
          "type": "address"
        },
        {
          "indexed": false,
          "internalType": "uint256",
          "name": "amount",
          "type": "uint256"
        }
      ],
      "name": "Withdrawn",
      "type": "event"
    },
    {
      "inputs": [],
      "name": "BASIS_POINTS",
      "outputs": [
        {
          "internalType": "uint256",
          "name": "",
          "type": "uint256"
        }
      ],
      "stateMutability": "view",
      "type": "function"
    },
    {
      "inputs": [],
      "name": "DAO_FEE",
      "outputs": [
        {
          "internalType": "uint256",
          "name": "",
          "type": "uint256"
        }
      ],
      "stateMutability": "view",
      "type": "function"
    },
    {
      "inputs": [],
      "name": "DEFAULT_ADMIN_ROLE",
      "outputs": [
        {
          "internalType": "bytes32",
          "name": "",
          "type": "bytes32"
        }
      ],
      "stateMutability": "view",
      "type": "function"
    },
    {
      "inputs": [],
      "name": "OPERATOR_ROLE",
      "outputs": [
        {
          "internalType": "bytes32",
          "name": "",
          "type": "bytes32"
        }
      ],
      "stateMutability": "view",
      "type": "function"
    },
    {
      "inputs": [],
      "name": "PLATFORM_FEE",
      "outputs": [
        {
          "internalType": "uint256",
          "name": "",
          "type": "uint256"
        }
      ],
      "stateMutability": "view",
      "type": "function"
    },
    {
      "inputs": [],
      "name": "TREASURER_ROLE",
      "outputs": [
        {
          "internalType": "bytes32",
          "name": "",
          "type": "bytes32"
        }
      ],
      "stateMutability": "view",
      "type": "function"
    },
    {
      "inputs": [],
      "name": "dao",
      "outputs": [
        {
          "internalType": "address",
          "name": "",
          "type": "address"
        }
      ],
      "stateMutability": "view",
      "type": "function"
    },
    {
      "inputs": [
        {
          "internalType": "address",
          "name": "",
          "type": "address"
        }
      ],
      "name": "daoBalances",
      "outputs": [
        {
          "internalType": "uint256",
          "name": "",
          "type": "uint256"
        }
      ],
      "stateMutability": "view",
      "type": "function"
    },
    {
      "inputs": [
        {
          "internalType": "uint256",
          "name": "paymentId",
          "type": "uint256"
        }
      ],
      "name": "distributeRevenue",
      "outputs": [],
      "stateMutability": "nonpayable",
      "type": "function"
    },
    {
      "inputs": [],
      "name": "getDaoBalance",
      "outputs": [
        {
          "internalType": "uint256",
          "name": "",
          "type": "uint256"
        }
      ],
      "stateMutability": "view",
      "type": "function"
    },
    {
      "inputs": [
        {
          "internalType": "uint256",
          "name": "paymentId",
          "type": "uint256"
        }
      ],
      "name": "getPayment",
      "outputs": [
        {
          "internalType": "address",
          "name": "payer",
          "type": "address"
        },
        {
          "internalType": "address",
          "name": "provider",
          "type": "address"
        },
        {
          "internalType": "uint256",
          "name": "amount",
          "type": "uint256"
        },
        {
          "internalType": "uint256",
          "name": "timestamp",
          "type": "uint256"
        },
        {
          "internalType": "bool",
          "name": "processed",
          "type": "bool"
        }
      ],
      "stateMutability": "view",
      "type": "function"
    },
    {
      "inputs": [
        {
          "internalType": "address",
          "name": "provider",
          "type": "address"
        }
      ],
      "name": "getProviderBalance",
      "outputs": [
        {
          "internalType": "uint256",
          "name": "",
          "type": "uint256"
        }
      ],
      "stateMutability": "view",
      "type": "function"
    },
    {
      "inputs": [
        {
          "internalType": "bytes32",
          "name": "role",
          "type": "bytes32"
        }
      ],
      "name": "getRoleAdmin",
      "outputs": [
        {
          "internalType": "bytes32",
          "name": "",
          "type": "bytes32"
        }
      ],
      "stateMutability": "view",
      "type": "function"
    },
    {
      "inputs": [
        {
          "internalType": "bytes32",
          "name": "role",
          "type": "bytes32"
        },
        {
          "internalType": "address",
          "name": "account",
          "type": "address"
        }
      ],
      "name": "grantRole",
      "outputs": [],
      "stateMutability": "nonpayable",
      "type": "function"
    },
    {
      "inputs": [
        {
          "internalType": "bytes32",
          "name": "role",
          "type": "bytes32"
        },
        {
          "internalType": "address",
          "name": "account",
          "type": "address"
        }
      ],
      "name": "hasRole",
      "outputs": [
        {
          "internalType": "bool",
          "name": "",
          "type": "bool"
        }
      ],
      "stateMutability": "view",
      "type": "function"
    },
    {
      "inputs": [],
      "name": "mcpPool",
      "outputs": [
        {
          "internalType": "address",
          "name": "",
          "type": "address"
        }
      ],
      "stateMutability": "view",
      "type": "function"
    },
    {
      "inputs": [
        {
          "internalType": "uint256",
          "name": "",
          "type": "uint256"
        }
      ],
      "name": "payments",
      "outputs": [
        {
          "internalType": "address",
          "name": "payer",
          "type": "address"
        },
        {
          "internalType": "address",
          "name": "provider",
          "type": "address"
        },
        {
          "internalType": "uint256",
          "name": "amount",
          "type": "uint256"
        },
        {
          "internalType": "uint256",
          "name": "timestamp",
          "type": "uint256"
        },
        {
          "internalType": "bool",
          "name": "processed",
          "type": "bool"
        }
      ],
      "stateMutability": "view",
      "type": "function"
    },
    {
      "inputs": [
        {
          "internalType": "address",
          "name": "payer",
          "type": "address"
        },
        {
          "internalType": "address",
          "name": "provider",
          "type": "address"
        },
        {
          "internalType": "uint256",
          "name": "amount",
          "type": "uint256"
        }
      ],
      "name": "processPayment",
      "outputs": [
        {
          "internalType": "uint256",
          "name": "",
          "type": "uint256"
        }
      ],
      "stateMutability": "nonpayable",
      "type": "function"
    },
    {
      "inputs": [
        {
          "internalType": "address",
          "name": "",
          "type": "address"
        }
      ],
      "name": "providerBalances",
      "outputs": [
        {
          "internalType": "uint256",
          "name": "",
          "type": "uint256"
        }
      ],
      "stateMutability": "view",
      "type": "function"
    },
    {
      "inputs": [
        {
          "internalType": "bytes32",
          "name": "role",
          "type": "bytes32"
        },
        {
          "internalType": "address",
          "name": "account",
          "type": "address"
        }
      ],
      "name": "renounceRole",
      "outputs": [],
      "stateMutability": "nonpayable",
      "type": "function"
    },
    {
      "inputs": [
        {
          "internalType": "bytes32",
          "name": "role",
          "type": "bytes32"
        },
        {
          "internalType": "address",
          "name": "account",
          "type": "address"
        }
      ],
      "name": "revokeRole",
      "outputs": [],
      "stateMutability": "nonpayable",
      "type": "function"
    },
    {
      "inputs": [],
      "name": "sagaToken",
      "outputs": [
        {
          "internalType": "contract IERC20",
          "name": "",
          "type": "address"
        }
      ],
      "stateMutability": "view",
      "type": "function"
    },
    {
      "inputs": [
        {
          "internalType": "bytes4",
          "name": "interfaceId",
          "type": "bytes4"
        }
      ],
      "name": "supportsInterface",
      "outputs": [
        {
          "internalType": "bool",
          "name": "",
          "type": "bool"
        }
      ],
      "stateMutability": "view",
      "type": "function"
    },
    {
      "inputs": [],
      "name": "withdrawDaoFunds",
      "outputs": [],
      "stateMutability": "nonpayable",
      "type": "function"
    },
    {
      "inputs": [],
      "name": "withdrawProviderFunds",
      "outputs": [],
      "stateMutability": "nonpayable",
      "type": "function"
    }
  ],
  "bytecode": "0x60806040523480156200001157600080fd5b506040516200167e3803806200167e833981016040819052620000349162000314565b600180556001600160a01b038316620000945760405162461bcd60e51b815260206004820152601a60248201527f496e76616c6964205341474120746f6b656e206164647265737300000000000060448201526064015b60405180910390fd5b6001600160a01b038216620000ec5760405162461bcd60e51b815260206004820152601860248201527f496e76616c6964204d435020706f6f6c2061646472657373000000000000000060448201526064016200008b565b6001600160a01b038116620001445760405162461bcd60e51b815260206004820152601360248201527f496e76616c69642044414f20616464726573730000000000000000000000000060448201526064016200008b565b600280546001600160a01b038086166001600160a01b0319928316179092556003805485841690831617905560048054928416929091169190911790556200018e600033620001ef565b620001ba7f97667070c54ef182b0f5858b034beac1b6f3089aa2d3188bb1e8929f4fa9b92933620001ef565b620001e67f3496e2e73c4d42b75d702e60d9e48102720b8691234415963a5a857b86425d0733620001ef565b5050506200035e565b620001fb82826200020c565b62000208826000620002ac565b5050565b6000828152602081815260408083206001600160a01b038516845290915290205460ff1662000208576000828152602081815260408083206001600160a01b03851684529091529020805460ff19166001179055620002683390565b6001600160a01b0316816001600160a01b0316837f2f8788117e7eff1d82e926ec794901d17c78024a50270940304540a733656f0d60405160405180910390a45050565b600082815260208190526040808220600101805490849055905190918391839186917fbd79b86ffe0ab8e8776151514217cd7cacd52c909f66475c3af44e129f0b00ff9190a4505050565b80516001600160a01b03811681146200030f57600080fd5b919050565b6000806000606084860312156200032a57600080fd5b6200033584620002f7565b92506200034560208501620002f7565b91506200035560408501620002f7565b90509250925092565b611310806200036e6000396000f3fe608060405234801561001057600080fd5b50600436106101735760003560e01c80636ded3cd8116100de578063d547741f11610097578063e9e6a34911610071578063e9e6a349146103f7578063f046f98414610400578063f0a3a97c14610420578063f5b541a61461044757600080fd5b8063d547741f146103d3578063ddd418f7146103e6578063e1f1c4a7146103ee57600080fd5b80636ded3cd81461031d578063832eea0c1461033057806387d817891461035957806391d14854146103a5578063a217fddf146103b8578063d1a0cc5c146103c057600080fd5b80633280a836116101305780633280a8361461023957806334fbc9a1146102bc57806336568abe146102c45780634162169f146102d757806359fde1e0146102ea5780635ef8cd87146102fd57600080fd5b806301ffc9a7146101785780631b6e5a1b146101a0578063248a9ca3146101aa578063281caff0146101db57806328ac7f2c146102065780632f2ff15d14610226575b600080fd5b61018b610186366004611052565b61046e565b60405190151581526020015b60405180910390f35b6101a86104a5565b005b6101cd6101b836600461107c565b60009081526020819052604090206001015490565b604051908152602001610197565b6003546101ee906001600160a01b031681565b6040516001600160a01b039091168152602001610197565b6101cd6102143660046110b1565b60076020526000908152604090205481565b6101a86102343660046110cc565b610613565b61028761024736600461107c565b600090815260066020526040902080546001820154600283015460038401546004909401546001600160a01b039384169593909216939092909160ff1690565b604080516001600160a01b0396871681529590941660208601529284019190915260608301521515608082015260a001610197565b6101cd60c881565b6101a86102d23660046110cc565b61063d565b6004546101ee906001600160a01b031681565b6101a86102f836600461107c565b6106bb565b6101cd61030b3660046110b1565b60086020526000908152604090205481565b6002546101ee906001600160a01b031681565b6101cd61033e3660046110b1565b6001600160a01b031660009081526007602052604090205490565b61028761036736600461107c565b600660205260009081526040902080546001820154600283015460038401546004909401546001600160a01b03938416949390921692909160ff1685565b61018b6103b33660046110cc565b6108d3565b6101cd600081565b6101cd6103ce3660046110f8565b6108fc565b6101a86103e13660046110cc565b610b1c565b6101a8610b41565b6101cd61271081565b6101cd61012c81565b6004546001600160a01b03166000908152600860205260409020546101cd565b6101cd7f3496e2e73c4d42b75d702e60d9e48102720b8691234415963a5a857b86425d0781565b6101cd7f97667070c54ef182b0f5858b034beac1b6f3089aa2d3188bb1e8929f4fa9b92981565b60006001600160e01b03198216637965db0b60e01b148061049f57506301ffc9a760e01b6001600160e01b03198316145b92915050565b6104ad610cf8565b33600090815260076020526040902054806105065760405162461bcd60e51b81526020600482015260146024820152734e6f2066756e647320746f20776974686472617760601b60448201526064015b60405180910390fd5b3360008181526007602052604080822091909155600254905163a9059cbb60e01b81526004810192909252602482018390526001600160a01b03169063a9059cbb906044016020604051808303816000875af115801561056a573d6000803e3d6000fd5b505050506040513d601f19601f8201168201806040525081019061058e9190611134565b6105d25760405162461bcd60e51b8152602060048201526015602482015274151bdad95b881d1c985b9cd9995c8819985a5b1959605a1b60448201526064016104fd565b60405181815233907f7084f5476618d8e60b11ef0d7d3f06914655adb8793e28ff7f018d4c76d505d59060200160405180910390a25061061160018055565b565b60008281526020819052604090206001015461062e81610d51565b6106388383610d5b565b505050565b6001600160a01b03811633146106ad5760405162461bcd60e51b815260206004820152602f60248201527f416363657373436f6e74726f6c3a2063616e206f6e6c792072656e6f756e636560448201526e103937b632b9903337b91039b2b63360891b60648201526084016104fd565b6106b78282610ddf565b5050565b7f97667070c54ef182b0f5858b034beac1b6f3089aa2d3188bb1e8929f4fa9b9296106e581610d51565b6106ed610cf8565b6000828152600660205260409020600481015460ff16156107505760405162461bcd60e51b815260206004820152601960248201527f5061796d656e7420616c72656164792070726f6365737365640000000000000060448201526064016104fd565b600081600201541161079d5760405162461bcd60e51b8152602060048201526016602482015275125b9d985b1a59081c185e5b595b9d08185b5bdd5b9d60521b60448201526064016104fd565b600061271060c883600201546107b3919061116c565b6107bd9190611183565b9050600061271061012c84600201546107d6919061116c565b6107e09190611183565b90506000818385600201546107f591906111a5565b6107ff91906111a5565b60018501546001600160a01b03166000908152600760205260408120805492935083929091906108309084906111b8565b90915550506004546001600160a01b03166000908152600860205260408120805484929061085f9084906111b8565b909155505060048401805460ff1916600190811790915584015460408051838152602081018690529081018490526001600160a01b03909116907f615e44f94de69b66b60b6cdd78b2056d4ebbd39a1338646e5cf21328ead50d239060600160405180910390a2505050506106b760018055565b6000918252602082815260408084206001600160a01b0393909316845291905290205460ff1690565b60007f97667070c54ef182b0f5858b034beac1b6f3089aa2d3188bb1e8929f4fa9b92961092881610d51565b610930610cf8565b6001600160a01b03851661097e5760405162461bcd60e51b8152602060048201526015602482015274496e76616c6964207061796572206164647265737360581b60448201526064016104fd565b6001600160a01b0384166109d45760405162461bcd60e51b815260206004820152601860248201527f496e76616c69642070726f76696465722061646472657373000000000000000060448201526064016104fd565b60008311610a245760405162461bcd60e51b815260206004820152601d60248201527f416d6f756e74206d7573742062652067726561746572207468616e203000000060448201526064016104fd565b6000610a2f60055490565b9050610a3f600580546001019055565b6040805160a0810182526001600160a01b0388811680835288821660208085018281528587018b815242606088019081526000608089018181528b825260068652908a9020985189546001600160a01b0319908116918a16919091178a55935160018a01805490951698169790971790925551600287015551600386015592516004909401805460ff191694151594909417909355925187815291929184917f37a13dcf7266fe3681e46ca252ea4f79e8a76da88ae9446f99242fbc014a6c39910160405180910390a49150610b1460018055565b509392505050565b600082815260208190526040902060010154610b3781610d51565b6106388383610ddf565b7f3496e2e73c4d42b75d702e60d9e48102720b8691234415963a5a857b86425d07610b6b81610d51565b610b73610cf8565b6004546001600160a01b031660009081526008602052604090205480610bd25760405162461bcd60e51b81526020600482015260146024820152734e6f2066756e647320746f20776974686472617760601b60448201526064016104fd565b600480546001600160a01b03908116600090815260086020526040808220919091556002548354915163a9059cbb60e01b8152918316938201939093526024810184905291169063a9059cbb906044016020604051808303816000875af1158015610c41573d6000803e3d6000fd5b505050506040513d601f19601f82011682018060405250810190610c659190611134565b610ca95760405162461bcd60e51b8152602060048201526015602482015274151bdad95b881d1c985b9cd9995c8819985a5b1959605a1b60448201526064016104fd565b6004546040518281526001600160a01b03909116907f7084f5476618d8e60b11ef0d7d3f06914655adb8793e28ff7f018d4c76d505d59060200160405180910390a250610cf560018055565b50565b600260015403610d4a5760405162461bcd60e51b815260206004820152601f60248201527f5265656e7472616e637947756172643a207265656e7472616e742063616c6c0060448201526064016104fd565b6002600155565b610cf58133610e44565b610d6582826108d3565b6106b7576000828152602081815260408083206001600160a01b03851684529091529020805460ff19166001179055610d9b3390565b6001600160a01b0316816001600160a01b0316837f2f8788117e7eff1d82e926ec794901d17c78024a50270940304540a733656f0d60405160405180910390a45050565b610de982826108d3565b156106b7576000828152602081815260408083206001600160a01b0385168085529252808320805460ff1916905551339285917ff6391f5c32d9c69d2a47ea670b442974b53935d1edc7fd64eb21e047a839171b9190a45050565b610e4e82826108d3565b6106b757610e5b81610e9d565b610e66836020610eaf565b604051602001610e779291906111ef565b60408051601f198184030181529082905262461bcd60e51b82526104fd91600401611264565b606061049f6001600160a01b03831660145b60606000610ebe83600261116c565b610ec99060026111b8565b67ffffffffffffffff811115610ee157610ee1611297565b6040519080825280601f01601f191660200182016040528015610f0b576020820181803683370190505b509050600360fc1b81600081518110610f2657610f266112ad565b60200101906001600160f81b031916908160001a905350600f60fb1b81600181518110610f5557610f556112ad565b60200101906001600160f81b031916908160001a9053506000610f7984600261116c565b610f849060016111b8565b90505b6001811115610ffc576f181899199a1a9b1b9c1cb0b131b232b360811b85600f1660108110610fb857610fb86112ad565b1a60f81b828281518110610fce57610fce6112ad565b60200101906001600160f81b031916908160001a90535060049490941c93610ff5816112c3565b9050610f87565b50831561104b5760405162461bcd60e51b815260206004820181905260248201527f537472696e67733a20686578206c656e67746820696e73756666696369656e7460448201526064016104fd565b9392505050565b60006020828403121561106457600080fd5b81356001600160e01b03198116811461104b57600080fd5b60006020828403121561108e57600080fd5b5035919050565b80356001600160a01b03811681146110ac57600080fd5b919050565b6000602082840312156110c357600080fd5b61104b82611095565b600080604083850312156110df57600080fd5b823591506110ef60208401611095565b90509250929050565b60008060006060848603121561110d57600080fd5b61111684611095565b925061112460208501611095565b9150604084013590509250925092565b60006020828403121561114657600080fd5b8151801515811461104b57600080fd5b634e487b7160e01b600052601160045260246000fd5b808202811582820484141761049f5761049f611156565b6000826111a057634e487b7160e01b600052601260045260246000fd5b500490565b8181038181111561049f5761049f611156565b8082018082111561049f5761049f611156565b60005b838110156111e65781810151838201526020016111ce565b50506000910152565b7f416363657373436f6e74726f6c3a206163636f756e74200000000000000000008152600083516112278160178501602088016111cb565b7001034b99036b4b9b9b4b733903937b6329607d1b60179184019182015283516112588160288401602088016111cb565b01602801949350505050565b60208152600082518060208401526112838160408501602087016111cb565b601f01601f19169190910160400192915050565b634e487b7160e01b600052604160045260246000fd5b634e487b7160e01b600052603260045260246000fd5b6000816112d2576112d2611156565b50600019019056fea26469706673582212209669ab171016a5ba48f737cdd64601834214469f0601388659584adcab7f8b1764736f6c63430008140033",
  "linkReferences": {},
  "deployedLinkReferences": {}
}