{
  "_format": "hh-sol-artifact-1",
  "contractName": "BillingSystem",
  "sourceName": "contracts/BillingSystem.sol",
  "abi": [
    {
      "inputs": [
        {
          "internalType": "address",
          "name": "_sagaToken",
          "type": "address"
        },
        {
          "internalType": "address",
          "name": "_mcpPool",
          "type": "address"
        },
        {
          "internalType": "address",
          "name": "_dao",
          "type": "address"
        }
      ],
      "stateMutability": "nonpayable",
      "type": "constructor"
    },
    {
      "anonymous": false,
      "inputs": [
        {
          "indexed": true,
          "internalType": "uint256",
          "name": "paymentId",
          "type": "uint256"
        },
        {
          "indexed": true,
          "internalType": "address",
          "name": "payer",
          "type": "address"
        },
        {
          "indexed": true,
          "internalType": "address",
          "name": "provider",
          "type": "address"
        },
        {
          "indexed": false,
          "internalType": "uint256",
          "name": "amount",
          "type": "uint256"
        }
      ],
      "name": "PaymentProcessed",
      "type": "event"
    },
    {
      "anonymous": false,
      "inputs": [
        {
          "indexed": true,
          "internalType": "address",
          "name": "provider",
          "type": "address"
        },
        {
          "indexed": false,
          "internalType": "uint256",
          "name": "providerAmount",
          "type": "uint256"
        },
        {
          "indexed": false,
          "internalType": "uint256",
          "name": "platformAmount",
          "type": "uint256"
        },
        {
          "indexed": false,
          "internalType": "uint256",
          "name": "daoAmount",
          "type": "uint256"
        }
      ],
      "name": "RevenueDistributed",
      "type": "event"
    },
    {
      "anonymous": false,
      "inputs": [
        {
          "indexed": true,
          "internalType": "bytes32",
          "name": "role",
          "type": "bytes32"
        },
        {
          "indexed": true,
          "internalType": "bytes32",
          "name": "previousAdminRole",
          "type": "bytes32"
        },
        {
          "indexed": true,
          "internalType": "bytes32",
          "name": "newAdminRole",
          "type": "bytes32"
        }
      ],
      "name": "RoleAdminChanged",
      "type": "event"
    },
    {
      "anonymous": false,
      "inputs": [
        {
          "indexed": true,
          "internalType": "bytes32",
          "name": "role",
          "type": "bytes32"
        },
        {
          "indexed": true,
          "internalType": "address",
          "name": "account",
          "type": "address"
        },
        {
          "indexed": true,
          "internalType": "address",
          "name": "sender",
          "type": "address"
        }
      ],
      "name": "RoleGranted",
      "type": "event"
    },
    {
      "anonymous": false,
      "inputs": [
        {
          "indexed": true,
          "internalType": "bytes32",
          "name": "role",
          "type": "bytes32"
        },
        {
          "indexed": true,
          "internalType": "address",
          "name": "account",
          "type": "address"
        },
        {
          "indexed": true,
          "internalType": "address",
          "name": "sender",
          "type": "address"
        }
      ],
      "name": "RoleRevoked",
      "type": "event"
    },
    {
      "anonymous": false,
      "inputs": [
        {
          "indexed": true,
          "internalType": "address",
          "name": "account",
          "type": "address"
        },
        {
          "indexed": false,
          "internalType": "uint256",
          "name": "amount",
          "type": "uint256"
        }
      ],
      "name": "Withdrawn",
      "type": "event"
    },
    {
      "inputs": [],
      "name": "BASIS_POINTS",
      "outputs": [
        {
          "internalType": "uint256",
          "name": "",
          "type": "uint256"
        }
      ],
      "stateMutability": "view",
      "type": "function"
    },
    {
      "inputs": [],
      "name": "DAO_FEE",
      "outputs": [
        {
          "internalType": "uint256",
          "name": "",
          "type": "uint256"
        }
      ],
      "stateMutability": "view",
      "type": "function"
    },
    {
      "inputs": [],
      "name": "DEFAULT_ADMIN_ROLE",
      "outputs": [
        {
          "internalType": "bytes32",
          "name": "",
          "type": "bytes32"
        }
      ],
      "stateMutability": "view",
      "type": "function"
    },
    {
      "inputs": [],
      "name": "OPERATOR_ROLE",
      "outputs": [
        {
          "internalType": "bytes32",
          "name": "",
          "type": "bytes32"
        }
      ],
      "stateMutability": "view",
      "type": "function"
    },
    {
      "inputs": [],
      "name": "PLATFORM_FEE",
      "outputs": [
        {
          "internalType": "uint256",
          "name": "",
          "type": "uint256"
        }
      ],
      "stateMutability": "view",
      "type": "function"
    },
    {
      "inputs": [],
      "name": "TREASURER_ROLE",
      "outputs": [
        {
          "internalType": "bytes32",
          "name": "",
          "type": "bytes32"
        }
      ],
      "stateMutability": "view",
      "type": "function"
    },
    {
      "inputs": [],
      "name": "dao",
      "outputs": [
        {
          "internalType": "address",
          "name": "",
          "type": "address"
        }
      ],
      "stateMutability": "view",
      "type": "function"
    },
    {
      "inputs": [
        {
          "internalType": "address",
          "name": "",
          "type": "address"
        }
      ],
      "name": "daoBalances",
      "outputs": [
        {
          "internalType": "uint256",
          "name": "",
          "type": "uint256"
        }
      ],
      "stateMutability": "view",
      "type": "function"
    },
    {
      "inputs": [
        {
          "internalType": "uint256",
          "name": "paymentId",
          "type": "uint256"
        }
      ],
      "name": "distributeRevenue",
      "outputs": [],
      "stateMutability": "nonpayable",
      "type": "function"
    },
    {
      "inputs": [],
      "name": "getDaoBalance",
      "outputs": [
        {
          "internalType": "uint256",
          "name": "",
          "type": "uint256"
        }
      ],
      "stateMutability": "view",
      "type": "function"
    },
    {
      "inputs": [
        {
          "internalType": "uint256",
          "name": "paymentId",
          "type": "uint256"
        }
      ],
      "name": "getPayment",
      "outputs": [
        {
          "internalType": "address",
          "name": "payer",
          "type": "address"
        },
        {
          "internalType": "address",
          "name": "provider",
          "type": "address"
        },
        {
          "internalType": "uint256",
          "name": "amount",
          "type": "uint256"
        },
        {
          "internalType": "uint256",
          "name": "timestamp",
          "type": "uint256"
        },
        {
          "internalType": "bool",
          "name": "processed",
          "type": "bool"
        }
      ],
      "stateMutability": "view",
      "type": "function"
    },
    {
      "inputs": [
        {
          "internalType": "address",
          "name": "provider",
          "type": "address"
        }
      ],
      "name": "getProviderBalance",
      "outputs": [
        {
          "internalType": "uint256",
          "name": "",
          "type": "uint256"
        }
      ],
      "stateMutability": "view",
      "type": "function"
    },
    {
      "inputs": [
        {
          "internalType": "bytes32",
          "name": "role",
          "type": "bytes32"
        }
      ],
      "name": "getRoleAdmin",
      "outputs": [
        {
          "internalType": "bytes32",
          "name": "",
          "type": "bytes32"
        }
      ],
      "stateMutability": "view",
      "type": "function"
    },
    {
      "inputs": [
        {
          "internalType": "bytes32",
          "name": "role",
          "type": "bytes32"
        },
        {
          "internalType": "address",
          "name": "account",
          "type": "address"
        }
      ],
      "name": "grantRole",
      "outputs": [],
      "stateMutability": "nonpayable",
      "type": "function"
    },
    {
      "inputs": [
        {
          "internalType": "bytes32",
          "name": "role",
          "type": "bytes32"
        },
        {
          "internalType": "address",
          "name": "account",
          "type": "address"
        }
      ],
      "name": "hasRole",
      "outputs": [
        {
          "internalType": "bool",
          "name": "",
          "type": "bool"
        }
      ],
      "stateMutability": "view",
      "type": "function"
    },
    {
      "inputs": [],
      "name": "mcpPool",
      "outputs": [
        {
          "internalType": "address",
          "name": "",
          "type": "address"
        }
      ],
      "stateMutability": "view",
      "type": "function"
    },
    {
      "inputs": [
        {
          "internalType": "uint256",
          "name": "",
          "type": "uint256"
        }
      ],
      "name": "payments",
      "outputs": [
        {
          "internalType": "address",
          "name": "payer",
          "type": "address"
        },
        {
          "internalType": "address",
          "name": "provider",
          "type": "address"
        },
        {
          "internalType": "uint256",
          "name": "amount",
          "type": "uint256"
        },
        {
          "internalType": "uint256",
          "name": "timestamp",
          "type": "uint256"
        },
        {
          "internalType": "bool",
          "name": "processed",
          "type": "bool"
        }
      ],
      "stateMutability": "view",
      "type": "function"
    },
    {
      "inputs": [
        {
          "internalType": "address",
          "name": "payer",
          "type": "address"
        },
        {
          "internalType": "address",
          "name": "provider",
          "type": "address"
        },
        {
          "internalType": "uint256",
          "name": "amount",
          "type": "uint256"
        }
      ],
      "name": "processPayment",
      "outputs": [
        {
          "internalType": "uint256",
          "name": "",
          "type": "uint256"
        }
      ],
      "stateMutability": "nonpayable",
      "type": "function"
    },
    {
      "inputs": [
        {
          "internalType": "address",
          "name": "",
          "type": "address"
        }
      ],
      "name": "providerBalances",
      "outputs": [
        {
          "internalType": "uint256",
          "name": "",
          "type": "uint256"
        }
      ],
      "stateMutability": "view",
      "type": "function"
    },
    {
      "inputs": [
        {
          "internalType": "bytes32",
          "name": "role",
          "type": "bytes32"
        },
        {
          "internalType": "address",
          "name": "account",
          "type": "address"
        }
      ],
      "name": "renounceRole",
      "outputs": [],
      "stateMutability": "nonpayable",
      "type": "function"
    },
    {
      "inputs": [
        {
          "internalType": "bytes32",
          "name": "role",
          "type": "bytes32"
        },
        {
          "internalType": "address",
          "name": "account",
          "type": "address"
        }
      ],
      "name": "revokeRole",
      "outputs": [],
      "stateMutability": "nonpayable",
      "type": "function"
    },
    {
      "inputs": [],
      "name": "sagaToken",
      "outputs": [
        {
          "internalType": "contract IERC20",
          "name": "",
          "type": "address"
        }
      ],
      "stateMutability": "view",
      "type": "function"
    },
    {
      "inputs": [
        {
          "internalType": "bytes4",
          "name": "interfaceId",
          "type": "bytes4"
        }
      ],
      "name": "supportsInterface",
      "outputs": [
        {
          "internalType": "bool",
          "name": "",
          "type": "bool"
        }
      ],
      "stateMutability": "view",
      "type": "function"
    },
    {
      "inputs": [
        {
          "internalType": "uint256",
          "name": "amount",
          "type": "uint256"
        }
      ],
      "name": "transferTokensToContract",
      "outputs": [],
      "stateMutability": "nonpayable",
      "type": "function"
    },
    {
      "inputs": [],
      "name": "withdrawDaoFunds",
      "outputs": [],
      "stateMutability": "nonpayable",
      "type": "function"
    },
    {
      "inputs": [],
      "name": "withdrawProviderFunds",
      "outputs": [],
      "stateMutability": "nonpayable",
      "type": "function"
    }
  ],
  "bytecode": "0x60806040523480156200001157600080fd5b506040516200172238038062001722833981016040819052620000349162000314565b600180556001600160a01b038316620000945760405162461bcd60e51b815260206004820152601a60248201527f496e76616c6964205341474120746f6b656e206164647265737300000000000060448201526064015b60405180910390fd5b6001600160a01b038216620000ec5760405162461bcd60e51b815260206004820152601860248201527f496e76616c6964204d435020706f6f6c2061646472657373000000000000000060448201526064016200008b565b6001600160a01b038116620001445760405162461bcd60e51b815260206004820152601360248201527f496e76616c69642044414f20616464726573730000000000000000000000000060448201526064016200008b565b600280546001600160a01b038086166001600160a01b0319928316179092556003805485841690831617905560048054928416929091169190911790556200018e600033620001ef565b620001ba7f97667070c54ef182b0f5858b034beac1b6f3089aa2d3188bb1e8929f4fa9b92933620001ef565b620001e67f3496e2e73c4d42b75d702e60d9e48102720b8691234415963a5a857b86425d0733620001ef565b5050506200035e565b620001fb82826200020c565b62000208826000620002ac565b5050565b6000828152602081815260408083206001600160a01b038516845290915290205460ff1662000208576000828152602081815260408083206001600160a01b03851684529091529020805460ff19166001179055620002683390565b6001600160a01b0316816001600160a01b0316837f2f8788117e7eff1d82e926ec794901d17c78024a50270940304540a733656f0d60405160405180910390a45050565b600082815260208190526040808220600101805490849055905190918391839186917fbd79b86ffe0ab8e8776151514217cd7cacd52c909f66475c3af44e129f0b00ff9190a4505050565b80516001600160a01b03811681146200030f57600080fd5b919050565b6000806000606084860312156200032a57600080fd5b6200033584620002f7565b92506200034560208501620002f7565b91506200035560408501620002f7565b90509250925092565b6113b4806200036e6000396000f3fe608060405234801561001057600080fd5b506004361061018e5760003560e01c8063832eea0c116100de578063d547741f11610097578063e9e6a34911610071578063e9e6a34914610425578063f046f9841461042e578063f0a3a97c1461044e578063f5b541a61461047557600080fd5b8063d547741f14610401578063ddd418f714610414578063e1f1c4a71461041c57600080fd5b8063832eea0c1461034b57806387d817891461037457806391d14854146103c0578063a217fddf146103d3578063d1a0cc5c146103db578063d433ea0f146103ee57600080fd5b80633280a8361161014b5780634162169f116101255780634162169f146102f257806359fde1e0146103055780635ef8cd87146103185780636ded3cd81461033857600080fd5b80633280a8361461025457806334fbc9a1146102d757806336568abe146102df57600080fd5b806301ffc9a7146101935780631b6e5a1b146101bb578063248a9ca3146101c5578063281caff0146101f657806328ac7f2c146102215780632f2ff15d14610241575b600080fd5b6101a66101a13660046110c7565b61049c565b60405190151581526020015b60405180910390f35b6101c36104d3565b005b6101e86101d33660046110f1565b60009081526020819052604090206001015490565b6040519081526020016101b2565b600354610209906001600160a01b031681565b6040516001600160a01b0390911681526020016101b2565b6101e861022f366004611126565b60076020526000908152604090205481565b6101c361024f366004611141565b610619565b6102a26102623660046110f1565b600090815260066020526040902080546001820154600283015460038401546004909401546001600160a01b039384169593909216939092909160ff1690565b604080516001600160a01b0396871681529590941660208601529284019190915260608301521515608082015260a0016101b2565b6101e860c881565b6101c36102ed366004611141565b610643565b600454610209906001600160a01b031681565b6101c36103133660046110f1565b6106c1565b6101e8610326366004611126565b60086020526000908152604090205481565b600254610209906001600160a01b031681565b6101e8610359366004611126565b6001600160a01b031660009081526007602052604090205490565b6102a26103823660046110f1565b600660205260009081526040902080546001820154600283015460038401546004909401546001600160a01b03938416949390921692909160ff1685565b6101a66103ce366004611141565b6108d9565b6101e8600081565b6101e86103e936600461116d565b610902565b6101c36103fc3660046110f1565b610b22565b6101c361040f366004611141565b610bbc565b6101c3610be1565b6101e861271081565b6101e861012c81565b6004546001600160a01b03166000908152600860205260409020546101e8565b6101e87f3496e2e73c4d42b75d702e60d9e48102720b8691234415963a5a857b86425d0781565b6101e87f97667070c54ef182b0f5858b034beac1b6f3089aa2d3188bb1e8929f4fa9b92981565b60006001600160e01b03198216637965db0b60e01b14806104cd57506301ffc9a760e01b6001600160e01b03198316145b92915050565b6104db610d6d565b33600090815260076020526040902054806105345760405162461bcd60e51b81526020600482015260146024820152734e6f2066756e647320746f20776974686472617760601b60448201526064015b60405180910390fd5b3360008181526007602052604080822091909155600254905163a9059cbb60e01b81526004810192909252602482018390526001600160a01b03169063a9059cbb906044016020604051808303816000875af1158015610598573d6000803e3d6000fd5b505050506040513d601f19601f820116820180604052508101906105bc91906111a9565b6105d85760405162461bcd60e51b815260040161052b906111cb565b60405181815233907f7084f5476618d8e60b11ef0d7d3f06914655adb8793e28ff7f018d4c76d505d59060200160405180910390a25061061760018055565b565b60008281526020819052604090206001015461063481610dc6565b61063e8383610dd0565b505050565b6001600160a01b03811633146106b35760405162461bcd60e51b815260206004820152602f60248201527f416363657373436f6e74726f6c3a2063616e206f6e6c792072656e6f756e636560448201526e103937b632b9903337b91039b2b63360891b606482015260840161052b565b6106bd8282610e54565b5050565b7f97667070c54ef182b0f5858b034beac1b6f3089aa2d3188bb1e8929f4fa9b9296106eb81610dc6565b6106f3610d6d565b6000828152600660205260409020600481015460ff16156107565760405162461bcd60e51b815260206004820152601960248201527f5061796d656e7420616c72656164792070726f63657373656400000000000000604482015260640161052b565b60008160020154116107a35760405162461bcd60e51b8152602060048201526016602482015275125b9d985b1a59081c185e5b595b9d08185b5bdd5b9d60521b604482015260640161052b565b600061271060c883600201546107b99190611210565b6107c39190611227565b9050600061271061012c84600201546107dc9190611210565b6107e69190611227565b90506000818385600201546107fb9190611249565b6108059190611249565b60018501546001600160a01b031660009081526007602052604081208054929350839290919061083690849061125c565b90915550506004546001600160a01b03166000908152600860205260408120805484929061086590849061125c565b909155505060048401805460ff1916600190811790915584015460408051838152602081018690529081018490526001600160a01b03909116907f615e44f94de69b66b60b6cdd78b2056d4ebbd39a1338646e5cf21328ead50d239060600160405180910390a2505050506106bd60018055565b6000918252602082815260408084206001600160a01b0393909316845291905290205460ff1690565b60007f97667070c54ef182b0f5858b034beac1b6f3089aa2d3188bb1e8929f4fa9b92961092e81610dc6565b610936610d6d565b6001600160a01b0385166109845760405162461bcd60e51b8152602060048201526015602482015274496e76616c6964207061796572206164647265737360581b604482015260640161052b565b6001600160a01b0384166109da5760405162461bcd60e51b815260206004820152601860248201527f496e76616c69642070726f766964657220616464726573730000000000000000604482015260640161052b565b60008311610a2a5760405162461bcd60e51b815260206004820152601d60248201527f416d6f756e74206d7573742062652067726561746572207468616e2030000000604482015260640161052b565b6000610a3560055490565b9050610a45600580546001019055565b6040805160a0810182526001600160a01b0388811680835288821660208085018281528587018b815242606088019081526000608089018181528b825260068652908a9020985189546001600160a01b0319908116918a16919091178a55935160018a01805490951698169790971790925551600287015551600386015592516004909401805460ff191694151594909417909355925187815291929184917f37a13dcf7266fe3681e46ca252ea4f79e8a76da88ae9446f99242fbc014a6c39910160405180910390a49150610b1a60018055565b509392505050565b6002546040516323b872dd60e01b8152336004820152306024820152604481018390526001600160a01b03909116906323b872dd906064016020604051808303816000875af1158015610b79573d6000803e3d6000fd5b505050506040513d601f19601f82011682018060405250810190610b9d91906111a9565b610bb95760405162461bcd60e51b815260040161052b906111cb565b50565b600082815260208190526040902060010154610bd781610dc6565b61063e8383610e54565b7f3496e2e73c4d42b75d702e60d9e48102720b8691234415963a5a857b86425d07610c0b81610dc6565b610c13610d6d565b6004546001600160a01b031660009081526008602052604090205480610c725760405162461bcd60e51b81526020600482015260146024820152734e6f2066756e647320746f20776974686472617760601b604482015260640161052b565b600480546001600160a01b03908116600090815260086020526040808220919091556002548354915163a9059cbb60e01b8152918316938201939093526024810184905291169063a9059cbb906044016020604051808303816000875af1158015610ce1573d6000803e3d6000fd5b505050506040513d601f19601f82011682018060405250810190610d0591906111a9565b610d215760405162461bcd60e51b815260040161052b906111cb565b6004546040518281526001600160a01b03909116907f7084f5476618d8e60b11ef0d7d3f06914655adb8793e28ff7f018d4c76d505d59060200160405180910390a250610bb960018055565b600260015403610dbf5760405162461bcd60e51b815260206004820152601f60248201527f5265656e7472616e637947756172643a207265656e7472616e742063616c6c00604482015260640161052b565b6002600155565b610bb98133610eb9565b610dda82826108d9565b6106bd576000828152602081815260408083206001600160a01b03851684529091529020805460ff19166001179055610e103390565b6001600160a01b0316816001600160a01b0316837f2f8788117e7eff1d82e926ec794901d17c78024a50270940304540a733656f0d60405160405180910390a45050565b610e5e82826108d9565b156106bd576000828152602081815260408083206001600160a01b0385168085529252808320805460ff1916905551339285917ff6391f5c32d9c69d2a47ea670b442974b53935d1edc7fd64eb21e047a839171b9190a45050565b610ec382826108d9565b6106bd57610ed081610f12565b610edb836020610f24565b604051602001610eec929190611293565b60408051601f198184030181529082905262461bcd60e51b825261052b91600401611308565b60606104cd6001600160a01b03831660145b60606000610f33836002611210565b610f3e90600261125c565b67ffffffffffffffff811115610f5657610f5661133b565b6040519080825280601f01601f191660200182016040528015610f80576020820181803683370190505b509050600360fc1b81600081518110610f9b57610f9b611351565b60200101906001600160f81b031916908160001a905350600f60fb1b81600181518110610fca57610fca611351565b60200101906001600160f81b031916908160001a9053506000610fee846002611210565b610ff990600161125c565b90505b6001811115611071576f181899199a1a9b1b9c1cb0b131b232b360811b85600f166010811061102d5761102d611351565b1a60f81b82828151811061104357611043611351565b60200101906001600160f81b031916908160001a90535060049490941c9361106a81611367565b9050610ffc565b5083156110c05760405162461bcd60e51b815260206004820181905260248201527f537472696e67733a20686578206c656e67746820696e73756666696369656e74604482015260640161052b565b9392505050565b6000602082840312156110d957600080fd5b81356001600160e01b0319811681146110c057600080fd5b60006020828403121561110357600080fd5b5035919050565b80356001600160a01b038116811461112157600080fd5b919050565b60006020828403121561113857600080fd5b6110c08261110a565b6000806040838503121561115457600080fd5b823591506111646020840161110a565b90509250929050565b60008060006060848603121561118257600080fd5b61118b8461110a565b92506111996020850161110a565b9150604084013590509250925092565b6000602082840312156111bb57600080fd5b815180151581146110c057600080fd5b602080825260159082015274151bdad95b881d1c985b9cd9995c8819985a5b1959605a1b604082015260600190565b634e487b7160e01b600052601160045260246000fd5b80820281158282048414176104cd576104cd6111fa565b60008261124457634e487b7160e01b600052601260045260246000fd5b500490565b818103818111156104cd576104cd6111fa565b808201808211156104cd576104cd6111fa565b60005b8381101561128a578181015183820152602001611272565b50506000910152565b7f416363657373436f6e74726f6c3a206163636f756e74200000000000000000008152600083516112cb81601785016020880161126f565b7001034b99036b4b9b9b4b733903937b6329607d1b60179184019182015283516112fc81602884016020880161126f565b01602801949350505050565b602081526000825180602084015261132781604085016020870161126f565b601f01601f19169190910160400192915050565b634e487b7160e01b600052604160045260246000fd5b634e487b7160e01b600052603260045260246000fd5b600081611376576113766111fa565b50600019019056fea26469706673582212208e7f1ed348def76640ef7c7160018d7edc1e462c98bf53a2aed2e904badcd17264736f6c63430008140033",
  "linkReferences": {},
  "deployedLinkReferences": {}
}