{
  "_format": "hh-sol-artifact-1",
  "contractName": "MCPPool",
  "sourceName": "contracts/MCPPool.sol",
  "abi": [
    {
      "inputs": [
        {
          "internalType": "address",
          "name": "_sagaToken",
          "type": "address"
        },
        {
          "internalType": "address",
          "name": "_admin",
          "type": "address"
        }
      ],
      "stateMutability": "nonpayable",
      "type": "constructor"
    },
    {
      "anonymous": false,
      "inputs": [
        {
          "indexed": true,
          "internalType": "uint256",
          "name": "id",
          "type": "uint256"
        },
        {
          "indexed": false,
          "internalType": "address",
          "name": "approver",
          "type": "address"
        }
      ],
      "name": "MCPApproved",
      "type": "event"
    },
    {
      "anonymous": false,
      "inputs": [
        {
          "indexed": true,
          "internalType": "uint256",
          "name": "id",
          "type": "uint256"
        },
        {
          "indexed": false,
          "internalType": "string",
          "name": "name",
          "type": "string"
        },
        {
          "indexed": false,
          "internalType": "address",
          "name": "owner",
          "type": "address"
        }
      ],
      "name": "MCPRegistered",
      "type": "event"
    },
    {
      "anonymous": false,
      "inputs": [
        {
          "indexed": true,
          "internalType": "uint256",
          "name": "id",
          "type": "uint256"
        },
        {
          "indexed": false,
          "internalType": "address",
          "name": "rejector",
          "type": "address"
        }
      ],
      "name": "MCPRejected",
      "type": "event"
    },
    {
      "anonymous": false,
      "inputs": [
        {
          "indexed": true,
          "internalType": "uint256",
          "name": "id",
          "type": "uint256"
        },
        {
          "indexed": false,
          "internalType": "address",
          "name": "user",
          "type": "address"
        },
        {
          "indexed": false,
          "internalType": "uint256",
          "name": "calls",
          "type": "uint256"
        }
      ],
      "name": "MCPUsed",
      "type": "event"
    },
    {
      "anonymous": false,
      "inputs": [
        {
          "indexed": true,
          "internalType": "uint256",
          "name": "mcpId",
          "type": "uint256"
        },
        {
          "indexed": false,
          "internalType": "address",
          "name": "owner",
          "type": "address"
        },
        {
          "indexed": false,
          "internalType": "uint256",
          "name": "amount",
          "type": "uint256"
        }
      ],
      "name": "RevenueCollected",
      "type": "event"
    },
    {
      "anonymous": false,
      "inputs": [
        {
          "indexed": true,
          "internalType": "bytes32",
          "name": "role",
          "type": "bytes32"
        },
        {
          "indexed": true,
          "internalType": "bytes32",
          "name": "previousAdminRole",
          "type": "bytes32"
        },
        {
          "indexed": true,
          "internalType": "bytes32",
          "name": "newAdminRole",
          "type": "bytes32"
        }
      ],
      "name": "RoleAdminChanged",
      "type": "event"
    },
    {
      "anonymous": false,
      "inputs": [
        {
          "indexed": true,
          "internalType": "bytes32",
          "name": "role",
          "type": "bytes32"
        },
        {
          "indexed": true,
          "internalType": "address",
          "name": "account",
          "type": "address"
        },
        {
          "indexed": true,
          "internalType": "address",
          "name": "sender",
          "type": "address"
        }
      ],
      "name": "RoleGranted",
      "type": "event"
    },
    {
      "anonymous": false,
      "inputs": [
        {
          "indexed": true,
          "internalType": "bytes32",
          "name": "role",
          "type": "bytes32"
        },
        {
          "indexed": true,
          "internalType": "address",
          "name": "account",
          "type": "address"
        },
        {
          "indexed": true,
          "internalType": "address",
          "name": "sender",
          "type": "address"
        }
      ],
      "name": "RoleRevoked",
      "type": "event"
    },
    {
      "inputs": [],
      "name": "ADMIN_ROLE",
      "outputs": [
        {
          "internalType": "bytes32",
          "name": "",
          "type": "bytes32"
        }
      ],
      "stateMutability": "view",
      "type": "function"
    },
    {
      "inputs": [],
      "name": "DEFAULT_ADMIN_ROLE",
      "outputs": [
        {
          "internalType": "bytes32",
          "name": "",
          "type": "bytes32"
        }
      ],
      "stateMutability": "view",
      "type": "function"
    },
    {
      "inputs": [],
      "name": "REVIEWER_ROLE",
      "outputs": [
        {
          "internalType": "bytes32",
          "name": "",
          "type": "bytes32"
        }
      ],
      "stateMutability": "view",
      "type": "function"
    },
    {
      "inputs": [
        {
          "internalType": "address",
          "name": "_reviewer",
          "type": "address"
        }
      ],
      "name": "addReviewer",
      "outputs": [],
      "stateMutability": "nonpayable",
      "type": "function"
    },
    {
      "inputs": [
        {
          "internalType": "uint256",
          "name": "_mcpId",
          "type": "uint256"
        }
      ],
      "name": "approveMCP",
      "outputs": [],
      "stateMutability": "nonpayable",
      "type": "function"
    },
    {
      "inputs": [
        {
          "internalType": "uint256",
          "name": "_mcpId",
          "type": "uint256"
        }
      ],
      "name": "collectRevenue",
      "outputs": [],
      "stateMutability": "nonpayable",
      "type": "function"
    },
    {
      "inputs": [
        {
          "internalType": "uint256",
          "name": "_mcpId",
          "type": "uint256"
        }
      ],
      "name": "getMCP",
      "outputs": [
        {
          "internalType": "uint256",
          "name": "id",
          "type": "uint256"
        },
        {
          "internalType": "string",
          "name": "name",
          "type": "string"
        },
        {
          "internalType": "string",
          "name": "description",
          "type": "string"
        },
        {
          "internalType": "string",
          "name": "apiEndpoint",
          "type": "string"
        },
        {
          "internalType": "string",
          "name": "implementation",
          "type": "string"
        },
        {
          "internalType": "address",
          "name": "owner",
          "type": "address"
        },
        {
          "internalType": "uint256",
          "name": "pricePerCall",
          "type": "uint256"
        },
        {
          "internalType": "bool",
          "name": "isApproved",
          "type": "bool"
        },
        {
          "internalType": "bool",
          "name": "isActive",
          "type": "bool"
        },
        {
          "internalType": "uint256",
          "name": "totalCalls",
          "type": "uint256"
        },
        {
          "internalType": "uint256",
          "name": "totalRevenue",
          "type": "uint256"
        }
      ],
      "stateMutability": "view",
      "type": "function"
    },
    {
      "inputs": [
        {
          "internalType": "bytes32",
          "name": "role",
          "type": "bytes32"
        }
      ],
      "name": "getRoleAdmin",
      "outputs": [
        {
          "internalType": "bytes32",
          "name": "",
          "type": "bytes32"
        }
      ],
      "stateMutability": "view",
      "type": "function"
    },
    {
      "inputs": [
        {
          "internalType": "address",
          "name": "_user",
          "type": "address"
        },
        {
          "internalType": "uint256",
          "name": "_mcpId",
          "type": "uint256"
        }
      ],
      "name": "getUserMCPUsage",
      "outputs": [
        {
          "internalType": "uint256",
          "name": "",
          "type": "uint256"
        }
      ],
      "stateMutability": "view",
      "type": "function"
    },
    {
      "inputs": [
        {
          "internalType": "address",
          "name": "_user",
          "type": "address"
        }
      ],
      "name": "getUserUsage",
      "outputs": [
        {
          "components": [
            {
              "internalType": "uint256",
              "name": "mcpId",
              "type": "uint256"
            },
            {
              "internalType": "address",
              "name": "user",
              "type": "address"
            },
            {
              "internalType": "uint256",
              "name": "calls",
              "type": "uint256"
            },
            {
              "internalType": "uint256",
              "name": "lastUsed",
              "type": "uint256"
            }
          ],
          "internalType": "struct MCPPool.Usage[]",
          "name": "",
          "type": "tuple[]"
        }
      ],
      "stateMutability": "view",
      "type": "function"
    },
    {
      "inputs": [
        {
          "internalType": "bytes32",
          "name": "role",
          "type": "bytes32"
        },
        {
          "internalType": "address",
          "name": "account",
          "type": "address"
        }
      ],
      "name": "grantRole",
      "outputs": [],
      "stateMutability": "nonpayable",
      "type": "function"
    },
    {
      "inputs": [
        {
          "internalType": "bytes32",
          "name": "role",
          "type": "bytes32"
        },
        {
          "internalType": "address",
          "name": "account",
          "type": "address"
        }
      ],
      "name": "hasRole",
      "outputs": [
        {
          "internalType": "bool",
          "name": "",
          "type": "bool"
        }
      ],
      "stateMutability": "view",
      "type": "function"
    },
    {
      "inputs": [],
      "name": "mcpCount",
      "outputs": [
        {
          "internalType": "uint256",
          "name": "",
          "type": "uint256"
        }
      ],
      "stateMutability": "view",
      "type": "function"
    },
    {
      "inputs": [
        {
          "internalType": "uint256",
          "name": "",
          "type": "uint256"
        }
      ],
      "name": "mcps",
      "outputs": [
        {
          "internalType": "uint256",
          "name": "id",
          "type": "uint256"
        },
        {
          "internalType": "string",
          "name": "name",
          "type": "string"
        },
        {
          "internalType": "string",
          "name": "description",
          "type": "string"
        },
        {
          "internalType": "string",
          "name": "apiEndpoint",
          "type": "string"
        },
        {
          "internalType": "string",
          "name": "implementation",
          "type": "string"
        },
        {
          "internalType": "address",
          "name": "owner",
          "type": "address"
        },
        {
          "internalType": "uint256",
          "name": "pricePerCall",
          "type": "uint256"
        },
        {
          "internalType": "bool",
          "name": "isApproved",
          "type": "bool"
        },
        {
          "internalType": "bool",
          "name": "isActive",
          "type": "bool"
        },
        {
          "internalType": "uint256",
          "name": "totalCalls",
          "type": "uint256"
        },
        {
          "internalType": "uint256",
          "name": "totalRevenue",
          "type": "uint256"
        }
      ],
      "stateMutability": "view",
      "type": "function"
    },
    {
      "inputs": [],
      "name": "minApprovalVotes",
      "outputs": [
        {
          "internalType": "uint256",
          "name": "",
          "type": "uint256"
        }
      ],
      "stateMutability": "view",
      "type": "function"
    },
    {
      "inputs": [
        {
          "internalType": "string",
          "name": "_name",
          "type": "string"
        },
        {
          "internalType": "string",
          "name": "_description",
          "type": "string"
        },
        {
          "internalType": "string",
          "name": "_apiEndpoint",
          "type": "string"
        },
        {
          "internalType": "string",
          "name": "_implementation",
          "type": "string"
        },
        {
          "internalType": "uint256",
          "name": "_pricePerCall",
          "type": "uint256"
        }
      ],
      "name": "registerMCP",
      "outputs": [
        {
          "internalType": "uint256",
          "name": "",
          "type": "uint256"
        }
      ],
      "stateMutability": "nonpayable",
      "type": "function"
    },
    {
      "inputs": [
        {
          "internalType": "uint256",
          "name": "_mcpId",
          "type": "uint256"
        }
      ],
      "name": "rejectMCP",
      "outputs": [],
      "stateMutability": "nonpayable",
      "type": "function"
    },
    {
      "inputs": [
        {
          "internalType": "address",
          "name": "_reviewer",
          "type": "address"
        }
      ],
      "name": "removeReviewer",
      "outputs": [],
      "stateMutability": "nonpayable",
      "type": "function"
    },
    {
      "inputs": [
        {
          "internalType": "bytes32",
          "name": "role",
          "type": "bytes32"
        },
        {
          "internalType": "address",
          "name": "account",
          "type": "address"
        }
      ],
      "name": "renounceRole",
      "outputs": [],
      "stateMutability": "nonpayable",
      "type": "function"
    },
    {
      "inputs": [
        {
          "internalType": "bytes32",
          "name": "role",
          "type": "bytes32"
        },
        {
          "internalType": "address",
          "name": "account",
          "type": "address"
        }
      ],
      "name": "revokeRole",
      "outputs": [],
      "stateMutability": "nonpayable",
      "type": "function"
    },
    {
      "inputs": [],
      "name": "sagaToken",
      "outputs": [
        {
          "internalType": "contract SagaToken",
          "name": "",
          "type": "address"
        }
      ],
      "stateMutability": "view",
      "type": "function"
    },
    {
      "inputs": [
        {
          "internalType": "uint256",
          "name": "_minApprovalVotes",
          "type": "uint256"
        }
      ],
      "name": "setMinApprovalVotes",
      "outputs": [],
      "stateMutability": "nonpayable",
      "type": "function"
    },
    {
      "inputs": [
        {
          "internalType": "bytes4",
          "name": "interfaceId",
          "type": "bytes4"
        }
      ],
      "name": "supportsInterface",
      "outputs": [
        {
          "internalType": "bool",
          "name": "",
          "type": "bool"
        }
      ],
      "stateMutability": "view",
      "type": "function"
    },
    {
      "inputs": [
        {
          "internalType": "uint256",
          "name": "_mcpId",
          "type": "uint256"
        },
        {
          "internalType": "uint256",
          "name": "_calls",
          "type": "uint256"
        }
      ],
      "name": "useMCP",
      "outputs": [],
      "stateMutability": "nonpayable",
      "type": "function"
    },
    {
      "inputs": [
        {
          "internalType": "uint256",
          "name": "",
          "type": "uint256"
        },
        {
          "internalType": "address",
          "name": "",
          "type": "address"
        }
      ],
      "name": "userMCPCalls",
      "outputs": [
        {
          "internalType": "uint256",
          "name": "",
          "type": "uint256"
        }
      ],
      "stateMutability": "view",
      "type": "function"
    },
    {
      "inputs": [
        {
          "internalType": "address",
          "name": "",
          "type": "address"
        },
        {
          "internalType": "uint256",
          "name": "",
          "type": "uint256"
        }
      ],
      "name": "userUsage",
      "outputs": [
        {
          "internalType": "uint256",
          "name": "mcpId",
          "type": "uint256"
        },
        {
          "internalType": "address",
          "name": "user",
          "type": "address"
        },
        {
          "internalType": "uint256",
          "name": "calls",
          "type": "uint256"
        },
        {
          "internalType": "uint256",
          "name": "lastUsed",
          "type": "uint256"
        }
      ],
      "stateMutability": "view",
      "type": "function"
    }
  ],
  "bytecode": "0x60806040523480156200001157600080fd5b506040516200229138038062002291833981016040819052620000349162000192565b60018055600280546001600160a01b0319166001600160a01b03841617905562000060600082620000c5565b6200008c7fa49807205ce4d355092ef5a8a18f56e8913cf4a201fbe287825b095693c2177582620000c5565b620000b87fc10c77be35aff266144ed64c26a1fa104bae2f284ae99ac4a34203454704a18582620000c5565b50506003600755620001ca565b620000d18282620000d5565b5050565b6000828152602081815260408083206001600160a01b038516845290915290205460ff16620000d1576000828152602081815260408083206001600160a01b03851684529091529020805460ff19166001179055620001313390565b6001600160a01b0316816001600160a01b0316837f2f8788117e7eff1d82e926ec794901d17c78024a50270940304540a733656f0d60405160405180910390a45050565b80516001600160a01b03811681146200018d57600080fd5b919050565b60008060408385031215620001a657600080fd5b620001b18362000175565b9150620001c16020840162000175565b90509250929050565b6120b780620001da6000396000f3fe608060405234801561001057600080fd5b506004361061018e5760003560e01c8063887b7a24116100de578063a7d65daf11610097578063c9442dac11610071578063c9442dac146103ed578063cae8fee014610400578063d547741f14610413578063f6d5dd4f1461042657600080fd5b8063a7d65daf146103be578063badfd3a7146103d1578063bcc72d1b146103e457600080fd5b8063887b7a241461033d578063895052341461035d57806391d1485414610370578063923ee7ba14610383578063a217fddf146103ad578063a3d0602a146103b557600080fd5b80635b1cfc4f1161014b57806373a82b5f1161012557806373a82b5f146102d7578063752b6a33146102ea57806375b238fc146102fd5780637a08ad9b1461031257600080fd5b80635b1cfc4f1461025e5780636ded3cd814610271578063721c49b61461029c57600080fd5b806301ffc9a71461019357806317a6fdc2146101bb578063248a9ca3146101fe5780632f2ff15d1461022157806336568abe146102365780633b129a5614610249575b600080fd5b6101a66101a13660046119d4565b610439565b60405190151581526020015b60405180910390f35b6101f06101c9366004611a1a565b60009081526005602090815260408083206001600160a01b03949094168352929052205490565b6040519081526020016101b2565b6101f061020c366004611a44565b60009081526020819052604090206001015490565b61023461022f366004611a5d565b610470565b005b610234610244366004611a5d565b61049a565b6101f060008051602061204283398151915281565b61023461026c366004611a44565b61051d565b600254610284906001600160a01b031681565b6040516001600160a01b0390911681526020016101b2565b6102af6102aa366004611a1a565b610604565b604080519485526001600160a01b0390931660208501529183015260608201526080016101b2565b6102346102e5366004611a89565b610653565b6102346102f8366004611a44565b610683565b6101f060008051602061206283398151915281565b6101f0610320366004611a5d565b600560209081526000928352604080842090915290825290205481565b61035061034b366004611a89565b610766565b6040516101b29190611aa4565b61023461036b366004611a44565b610806565b6101a661037e366004611a5d565b610824565b610396610391366004611a44565b61084d565b6040516101b29b9a99989796959493929190611b61565b6101f0600081565b6101f060065481565b6102346103cc366004611bf9565b610ad2565b6102346103df366004611a44565b610ed0565b6101f060075481565b6102346103fb366004611a89565b6110c3565b61039661040e366004611a44565b6110f3565b610234610421366004611a5d565b6113dc565b6101f0610434366004611cbe565b611401565b60006001600160e01b03198216637965db0b60e01b148061046a57506301ffc9a760e01b6001600160e01b03198316145b92915050565b60008281526020819052604090206001015461048b8161167a565b6104958383611684565b505050565b6001600160a01b038116331461050f5760405162461bcd60e51b815260206004820152602f60248201527f416363657373436f6e74726f6c3a2063616e206f6e6c792072656e6f756e636560448201526e103937b632b9903337b91039b2b63360891b60648201526084015b60405180910390fd5b6105198282611708565b5050565b6000805160206120428339815191526105358161167a565b60065482106105565760405162461bcd60e51b815260040161050690611d73565b60008281526003602052604090206007015460ff16156105af5760405162461bcd60e51b81526020600482015260146024820152731350d408185b1c9958591e48185c1c1c9bdd995960621b6044820152606401610506565b600082815260036020908152604091829020600701805461ff0019169055905133815283917f979a51ed683c5b8e5cd08b08110888cbe45acc7ce92e5082315081bcadeb5e8491015b60405180910390a25050565b6004602052816000526040600020818154811061062057600080fd5b600091825260209091206004909102018054600182015460028301546003909301549194506001600160a01b0316925084565b60008051602061206283398151915261066b8161167a565b61051960008051602061204283398151915283610470565b60008051602061204283398151915261069b8161167a565b60065482106106bc5760405162461bcd60e51b815260040161050690611d73565b60008281526003602052604090206007015460ff16156107155760405162461bcd60e51b81526020600482015260146024820152731350d408185b1c9958591e48185c1c1c9bdd995960621b6044820152606401610506565b600082815260036020908152604091829020600701805461ffff1916610101179055905133815283917f681358bb7d45ccb8422ac763c02d9162e6f996f2f695b76a1bbd42d3fe0e3f9691016105f8565b6001600160a01b0381166000908152600460209081526040808320805482518185028101850190935280835260609492939192909184015b828210156107fb5760008481526020908190206040805160808101825260048602909201805483526001808201546001600160a01b031684860152600282015492840192909252600301546060830152908352909201910161079e565b505050509050919050565b60008051602061206283398151915261081e8161167a565b50600755565b6000918252602082815260408084206001600160a01b0393909316845291905290205460ff1690565b6003602052600090815260409020805460018201805491929161086f90611d9f565b80601f016020809104026020016040519081016040528092919081815260200182805461089b90611d9f565b80156108e85780601f106108bd576101008083540402835291602001916108e8565b820191906000526020600020905b8154815290600101906020018083116108cb57829003601f168201915b5050505050908060020180546108fd90611d9f565b80601f016020809104026020016040519081016040528092919081815260200182805461092990611d9f565b80156109765780601f1061094b57610100808354040283529160200191610976565b820191906000526020600020905b81548152906001019060200180831161095957829003601f168201915b50505050509080600301805461098b90611d9f565b80601f01602080910402602001604051908101604052809291908181526020018280546109b790611d9f565b8015610a045780601f106109d957610100808354040283529160200191610a04565b820191906000526020600020905b8154815290600101906020018083116109e757829003601f168201915b505050505090806004018054610a1990611d9f565b80601f0160208091040260200160405190810160405280929190818152602001828054610a4590611d9f565b8015610a925780601f10610a6757610100808354040283529160200191610a92565b820191906000526020600020905b815481529060010190602001808311610a7557829003601f168201915b50505050600583015460068401546007850154600886015460099096015494956001600160a01b039093169491935060ff8082169361010090920416918b565b610ada61176d565b6006548210610afb5760405162461bcd60e51b815260040161050690611d73565b60008281526003602052604090206007015460ff168015610b325750600082815260036020526040902060070154610100900460ff165b610b7e5760405162461bcd60e51b815260206004820152601c60248201527f4d4350206e6f7420617070726f766564206f7220696e616374697665000000006044820152606401610506565b60008111610bce5760405162461bcd60e51b815260206004820152601c60248201527f43616c6c73206d7573742062652067726561746572207468616e2030000000006044820152606401610506565b60008281526003602052604081206006810154909190610bef908490611def565b6002546040516323b872dd60e01b8152336004820152306024820152604481018390529192506001600160a01b0316906323b872dd906064016020604051808303816000875af1158015610c47573d6000803e3d6000fd5b505050506040513d601f19601f82011682018060405250810190610c6b9190611e06565b610caf5760405162461bcd60e51b8152602060048201526015602482015274151bdad95b881d1c985b9cd9995c8819985a5b1959605a1b6044820152606401610506565b82826008016000828254610cc39190611e28565b9250508190555080826009016000828254610cde9190611e28565b9091555050600084815260056020908152604080832033845290915281208054859290610d0c908490611e28565b9091555060009050805b33600090815260046020526040902054811015610e0557336000908152600460205260409020805487919083908110610d5157610d51611e3b565b90600052602060002090600402016000015403610df357336000908152600460205260409020805486919083908110610d8c57610d8c611e3b565b90600052602060002090600402016002016000828254610dac9190611e28565b9091555050336000908152600460205260409020805442919083908110610dd557610dd5611e3b565b90600052602060002090600402016003018190555060019150610e05565b80610dfd81611e51565b915050610d16565b5080610e895733600081815260046020818152604080842081516080810183528b81528084019687529182018a8152426060840190815282546001808201855593885294909620925193909402909101918255935193810180546001600160a01b0319166001600160a01b0390951694909417909355516002830155516003909101555b604080513381526020810186905286917f39e42f1a7d4c3a31831f36b52ab4b34909ea51392b9b9e135c54879834e35d2f910160405180910390a250505061051960018055565b610ed861176d565b6006548110610ef95760405162461bcd60e51b815260040161050690611d73565b6000818152600360205260409020600501546001600160a01b03163314610f565760405162461bcd60e51b81526020600482015260116024820152702737ba103a34329026a1a81037bbb732b960791b6044820152606401610506565b60008181526003602052604090206009015480610fad5760405162461bcd60e51b8152602060048201526015602482015274139bc81c995d995b9d59481d1bc818dbdb1b1958dd605a1b6044820152606401610506565b60008281526003602052604080822060090191909155600254905163a9059cbb60e01b8152336004820152602481018390526001600160a01b039091169063a9059cbb906044016020604051808303816000875af1158015611013573d6000803e3d6000fd5b505050506040513d601f19601f820116820180604052508101906110379190611e06565b61107b5760405162461bcd60e51b8152602060048201526015602482015274151bdad95b881d1c985b9cd9995c8819985a5b1959605a1b6044820152606401610506565b604080513381526020810183905283917f3d12c9c6e9d6a97f338039d78adb749dc9b620602c1228a5729f114719377a1a910160405180910390a2506110c060018055565b50565b6000805160206120628339815191526110db8161167a565b610519600080516020612042833981519152836113dc565b60006060806060806000806000806000806006548c106111255760405162461bcd60e51b815260040161050690611d73565b60008c815260036020819052604090912080546005820154600683015460078401546008850154600986015460018701805497989697909660028a0196908a019560048b01956001600160a01b0390921694909360ff8084169461010090940416928a9061119290611d9f565b80601f01602080910402602001604051908101604052809291908181526020018280546111be90611d9f565b801561120b5780601f106111e05761010080835404028352916020019161120b565b820191906000526020600020905b8154815290600101906020018083116111ee57829003601f168201915b5050505050995088805461121e90611d9f565b80601f016020809104026020016040519081016040528092919081815260200182805461124a90611d9f565b80156112975780601f1061126c57610100808354040283529160200191611297565b820191906000526020600020905b81548152906001019060200180831161127a57829003601f168201915b505050505098508780546112aa90611d9f565b80601f01602080910402602001604051908101604052809291908181526020018280546112d690611d9f565b80156113235780601f106112f857610100808354040283529160200191611323565b820191906000526020600020905b81548152906001019060200180831161130657829003601f168201915b5050505050975086805461133690611d9f565b80601f016020809104026020016040519081016040528092919081815260200182805461136290611d9f565b80156113af5780601f10611384576101008083540402835291602001916113af565b820191906000526020600020905b81548152906001019060200180831161139257829003601f168201915b505050505096509b509b509b509b509b509b509b509b509b509b509b505091939597999b90929496989a50565b6000828152602081905260409020600101546113f78161167a565b6104958383611708565b60008086511161144a5760405162461bcd60e51b81526020600482015260146024820152734e616d652063616e6e6f7420626520656d70747960601b6044820152606401610506565b600084511161149b5760405162461bcd60e51b815260206004820152601c60248201527f41504920656e64706f696e742063616e6e6f7420626520656d707479000000006044820152606401610506565b600082116114eb5760405162461bcd60e51b815260206004820152601c60248201527f5072696365206d7573742062652067726561746572207468616e2030000000006044820152606401610506565b60068054600091826114fc83611e51565b90915550604080516101608101825282815260208082018b81528284018b9052606083018a9052608083018990523360a084015260c08301889052600060e08401819052610100840181905261012084018190526101408401819052858152600390925292902081518155915192935091600182019061157c9082611eb8565b50604082015160028201906115919082611eb8565b50606082015160038201906115a69082611eb8565b50608082015160048201906115bb9082611eb8565b5060a08201516005820180546001600160a01b039092166001600160a01b031990921691909117905560c0820151600682015560e08201516007820180546101008086015115150261ff00199315159390931661ffff199091161791909117905561012082015160088201556101409091015160099091015560405181907f702fac00fb84b335db93db89a65f4390b67c5982885504327d9a977d3e7e367b90611668908a903390611f78565b60405180910390a29695505050505050565b6110c081336117c6565b61168e8282610824565b610519576000828152602081815260408083206001600160a01b03851684529091529020805460ff191660011790556116c43390565b6001600160a01b0316816001600160a01b0316837f2f8788117e7eff1d82e926ec794901d17c78024a50270940304540a733656f0d60405160405180910390a45050565b6117128282610824565b15610519576000828152602081815260408083206001600160a01b0385168085529252808320805460ff1916905551339285917ff6391f5c32d9c69d2a47ea670b442974b53935d1edc7fd64eb21e047a839171b9190a45050565b6002600154036117bf5760405162461bcd60e51b815260206004820152601f60248201527f5265656e7472616e637947756172643a207265656e7472616e742063616c6c006044820152606401610506565b6002600155565b6117d08282610824565b610519576117dd8161181f565b6117e8836020611831565b6040516020016117f9929190611fa2565b60408051601f198184030181529082905262461bcd60e51b825261050691600401612017565b606061046a6001600160a01b03831660145b60606000611840836002611def565b61184b906002611e28565b67ffffffffffffffff81111561186357611863611c1b565b6040519080825280601f01601f19166020018201604052801561188d576020820181803683370190505b509050600360fc1b816000815181106118a8576118a8611e3b565b60200101906001600160f81b031916908160001a905350600f60fb1b816001815181106118d7576118d7611e3b565b60200101906001600160f81b031916908160001a90535060006118fb846002611def565b611906906001611e28565b90505b600181111561197e576f181899199a1a9b1b9c1cb0b131b232b360811b85600f166010811061193a5761193a611e3b565b1a60f81b82828151811061195057611950611e3b565b60200101906001600160f81b031916908160001a90535060049490941c936119778161202a565b9050611909565b5083156119cd5760405162461bcd60e51b815260206004820181905260248201527f537472696e67733a20686578206c656e67746820696e73756666696369656e746044820152606401610506565b9392505050565b6000602082840312156119e657600080fd5b81356001600160e01b0319811681146119cd57600080fd5b80356001600160a01b0381168114611a1557600080fd5b919050565b60008060408385031215611a2d57600080fd5b611a36836119fe565b946020939093013593505050565b600060208284031215611a5657600080fd5b5035919050565b60008060408385031215611a7057600080fd5b82359150611a80602084016119fe565b90509250929050565b600060208284031215611a9b57600080fd5b6119cd826119fe565b602080825282518282018190526000919060409081850190868401855b82811015611b0457815180518552868101516001600160a01b03168786015285810151868601526060908101519085015260809093019290850190600101611ac1565b5091979650505050505050565b60005b83811015611b2c578181015183820152602001611b14565b50506000910152565b60008151808452611b4d816020860160208601611b11565b601f01601f19169290920160200192915050565b60006101608d8352806020840152611b7b8184018e611b35565b90508281036040840152611b8f818d611b35565b90508281036060840152611ba3818c611b35565b90508281036080840152611bb7818b611b35565b6001600160a01b039990991660a0840152505060c081019590955292151560e08501529015156101008401526101208301526101409091015295945050505050565b60008060408385031215611c0c57600080fd5b50508035926020909101359150565b634e487b7160e01b600052604160045260246000fd5b600082601f830112611c4257600080fd5b813567ffffffffffffffff80821115611c5d57611c5d611c1b565b604051601f8301601f19908116603f01168101908282118183101715611c8557611c85611c1b565b81604052838152866020858801011115611c9e57600080fd5b836020870160208301376000602085830101528094505050505092915050565b600080600080600060a08688031215611cd657600080fd5b853567ffffffffffffffff80821115611cee57600080fd5b611cfa89838a01611c31565b96506020880135915080821115611d1057600080fd5b611d1c89838a01611c31565b95506040880135915080821115611d3257600080fd5b611d3e89838a01611c31565b94506060880135915080821115611d5457600080fd5b50611d6188828901611c31565b95989497509295608001359392505050565b6020808252601290820152711350d408191bd95cc81b9bdd08195e1a5cdd60721b604082015260600190565b600181811c90821680611db357607f821691505b602082108103611dd357634e487b7160e01b600052602260045260246000fd5b50919050565b634e487b7160e01b600052601160045260246000fd5b808202811582820484141761046a5761046a611dd9565b600060208284031215611e1857600080fd5b815180151581146119cd57600080fd5b8082018082111561046a5761046a611dd9565b634e487b7160e01b600052603260045260246000fd5b600060018201611e6357611e63611dd9565b5060010190565b601f82111561049557600081815260208120601f850160051c81016020861015611e915750805b601f850160051c820191505b81811015611eb057828155600101611e9d565b505050505050565b815167ffffffffffffffff811115611ed257611ed2611c1b565b611ee681611ee08454611d9f565b84611e6a565b602080601f831160018114611f1b5760008415611f035750858301515b600019600386901b1c1916600185901b178555611eb0565b600085815260208120601f198616915b82811015611f4a57888601518255948401946001909101908401611f2b565b5085821015611f685787850151600019600388901b60f8161c191681555b5050505050600190811b01905550565b604081526000611f8b6040830185611b35565b905060018060a01b03831660208301529392505050565b7f416363657373436f6e74726f6c3a206163636f756e7420000000000000000000815260008351611fda816017850160208801611b11565b7001034b99036b4b9b9b4b733903937b6329607d1b601791840191820152835161200b816028840160208801611b11565b01602801949350505050565b6020815260006119cd6020830184611b35565b60008161203957612039611dd9565b50600019019056fec10c77be35aff266144ed64c26a1fa104bae2f284ae99ac4a34203454704a185a49807205ce4d355092ef5a8a18f56e8913cf4a201fbe287825b095693c21775a264697066735822122031963b8e2b77661e4f2d2cf8dec0b2a623474ce2556c3ff51e8e18a7879aaacb64736f6c63430008140033",
  "linkReferences": {},
  "deployedLinkReferences": {}
}