{
  "_format": "hh-sol-artifact-1",
  "contractName": "SagaToken",
  "sourceName": "contracts/SagaToken.sol",
  "abi": [
    {
      "inputs": [],
      "stateMutability": "nonpayable",
      "type": "constructor"
    },
    {
      "inputs": [],
      "name": "InvalidShortString",
      "type": "error"
    },
    {
      "inputs": [
        {
          "internalType": "string",
          "name": "str",
          "type": "string"
        }
      ],
      "name": "StringTooLong",
      "type": "error"
    },
    {
      "anonymous": false,
      "inputs": [
        {
          "indexed": true,
          "internalType": "address",
          "name": "owner",
          "type": "address"
        },
        {
          "indexed": true,
          "internalType": "address",
          "name": "spender",
          "type": "address"
        },
        {
          "indexed": false,
          "internalType": "uint256",
          "name": "value",
          "type": "uint256"
        }
      ],
      "name": "Approval",
      "type": "event"
    },
    {
      "anonymous": false,
      "inputs": [
        {
          "indexed": true,
          "internalType": "address",
          "name": "delegator",
          "type": "address"
        },
        {
          "indexed": true,
          "internalType": "address",
          "name": "fromDelegate",
          "type": "address"
        },
        {
          "indexed": true,
          "internalType": "address",
          "name": "toDelegate",
          "type": "address"
        }
      ],
      "name": "DelegateChanged",
      "type": "event"
    },
    {
      "anonymous": false,
      "inputs": [
        {
          "indexed": true,
          "internalType": "address",
          "name": "delegate",
          "type": "address"
        },
        {
          "indexed": false,
          "internalType": "uint256",
          "name": "previousBalance",
          "type": "uint256"
        },
        {
          "indexed": false,
          "internalType": "uint256",
          "name": "newBalance",
          "type": "uint256"
        }
      ],
      "name": "DelegateVotesChanged",
      "type": "event"
    },
    {
      "anonymous": false,
      "inputs": [],
      "name": "EIP712DomainChanged",
      "type": "event"
    },
    {
      "anonymous": false,
      "inputs": [
        {
          "indexed": true,
          "internalType": "address",
          "name": "from",
          "type": "address"
        },
        {
          "indexed": true,
          "internalType": "address",
          "name": "to",
          "type": "address"
        },
        {
          "indexed": false,
          "internalType": "uint256",
          "name": "value",
          "type": "uint256"
        }
      ],
      "name": "Transfer",
      "type": "event"
    },
    {
      "inputs": [],
      "name": "CLOCK_MODE",
      "outputs": [
        {
          "internalType": "string",
          "name": "",
          "type": "string"
        }
      ],
      "stateMutability": "view",
      "type": "function"
    },
    {
      "inputs": [],
      "name": "DOMAIN_SEPARATOR",
      "outputs": [
        {
          "internalType": "bytes32",
          "name": "",
          "type": "bytes32"
        }
      ],
      "stateMutability": "view",
      "type": "function"
    },
    {
      "inputs": [
        {
          "internalType": "address",
          "name": "owner",
          "type": "address"
        },
        {
          "internalType": "address",
          "name": "spender",
          "type": "address"
        }
      ],
      "name": "allowance",
      "outputs": [
        {
          "internalType": "uint256",
          "name": "",
          "type": "uint256"
        }
      ],
      "stateMutability": "view",
      "type": "function"
    },
    {
      "inputs": [
        {
          "internalType": "address",
          "name": "spender",
          "type": "address"
        },
        {
          "internalType": "uint256",
          "name": "amount",
          "type": "uint256"
        }
      ],
      "name": "approve",
      "outputs": [
        {
          "internalType": "bool",
          "name": "",
          "type": "bool"
        }
      ],
      "stateMutability": "nonpayable",
      "type": "function"
    },
    {
      "inputs": [
        {
          "internalType": "address",
          "name": "account",
          "type": "address"
        }
      ],
      "name": "balanceOf",
      "outputs": [
        {
          "internalType": "uint256",
          "name": "",
          "type": "uint256"
        }
      ],
      "stateMutability": "view",
      "type": "function"
    },
    {
      "inputs": [
        {
          "internalType": "uint256",
          "name": "amount",
          "type": "uint256"
        }
      ],
      "name": "burn",
      "outputs": [],
      "stateMutability": "nonpayable",
      "type": "function"
    },
    {
      "inputs": [
        {
          "internalType": "address",
          "name": "account",
          "type": "address"
        },
        {
          "internalType": "uint32",
          "name": "pos",
          "type": "uint32"
        }
      ],
      "name": "checkpoints",
      "outputs": [
        {
          "components": [
            {
              "internalType": "uint32",
              "name": "fromBlock",
              "type": "uint32"
            },
            {
              "internalType": "uint224",
              "name": "votes",
              "type": "uint224"
            }
          ],
          "internalType": "struct ERC20Votes.Checkpoint",
          "name": "",
          "type": "tuple"
        }
      ],
      "stateMutability": "view",
      "type": "function"
    },
    {
      "inputs": [],
      "name": "clock",
      "outputs": [
        {
          "internalType": "uint48",
          "name": "",
          "type": "uint48"
        }
      ],
      "stateMutability": "view",
      "type": "function"
    },
    {
      "inputs": [],
      "name": "decimals",
      "outputs": [
        {
          "internalType": "uint8",
          "name": "",
          "type": "uint8"
        }
      ],
      "stateMutability": "view",
      "type": "function"
    },
    {
      "inputs": [
        {
          "internalType": "address",
          "name": "spender",
          "type": "address"
        },
        {
          "internalType": "uint256",
          "name": "subtractedValue",
          "type": "uint256"
        }
      ],
      "name": "decreaseAllowance",
      "outputs": [
        {
          "internalType": "bool",
          "name": "",
          "type": "bool"
        }
      ],
      "stateMutability": "nonpayable",
      "type": "function"
    },
    {
      "inputs": [
        {
          "internalType": "address",
          "name": "delegatee",
          "type": "address"
        }
      ],
      "name": "delegate",
      "outputs": [],
      "stateMutability": "nonpayable",
      "type": "function"
    },
    {
      "inputs": [
        {
          "internalType": "address",
          "name": "delegatee",
          "type": "address"
        },
        {
          "internalType": "uint256",
          "name": "nonce",
          "type": "uint256"
        },
        {
          "internalType": "uint256",
          "name": "expiry",
          "type": "uint256"
        },
        {
          "internalType": "uint8",
          "name": "v",
          "type": "uint8"
        },
        {
          "internalType": "bytes32",
          "name": "r",
          "type": "bytes32"
        },
        {
          "internalType": "bytes32",
          "name": "s",
          "type": "bytes32"
        }
      ],
      "name": "delegateBySig",
      "outputs": [],
      "stateMutability": "nonpayable",
      "type": "function"
    },
    {
      "inputs": [
        {
          "internalType": "address",
          "name": "account",
          "type": "address"
        }
      ],
      "name": "delegates",
      "outputs": [
        {
          "internalType": "address",
          "name": "",
          "type": "address"
        }
      ],
      "stateMutability": "view",
      "type": "function"
    },
    {
      "inputs": [],
      "name": "eip712Domain",
      "outputs": [
        {
          "internalType": "bytes1",
          "name": "fields",
          "type": "bytes1"
        },
        {
          "internalType": "string",
          "name": "name",
          "type": "string"
        },
        {
          "internalType": "string",
          "name": "version",
          "type": "string"
        },
        {
          "internalType": "uint256",
          "name": "chainId",
          "type": "uint256"
        },
        {
          "internalType": "address",
          "name": "verifyingContract",
          "type": "address"
        },
        {
          "internalType": "bytes32",
          "name": "salt",
          "type": "bytes32"
        },
        {
          "internalType": "uint256[]",
          "name": "extensions",
          "type": "uint256[]"
        }
      ],
      "stateMutability": "view",
      "type": "function"
    },
    {
      "inputs": [
        {
          "internalType": "uint256",
          "name": "timepoint",
          "type": "uint256"
        }
      ],
      "name": "getPastTotalSupply",
      "outputs": [
        {
          "internalType": "uint256",
          "name": "",
          "type": "uint256"
        }
      ],
      "stateMutability": "view",
      "type": "function"
    },
    {
      "inputs": [
        {
          "internalType": "address",
          "name": "account",
          "type": "address"
        },
        {
          "internalType": "uint256",
          "name": "timepoint",
          "type": "uint256"
        }
      ],
      "name": "getPastVotes",
      "outputs": [
        {
          "internalType": "uint256",
          "name": "",
          "type": "uint256"
        }
      ],
      "stateMutability": "view",
      "type": "function"
    },
    {
      "inputs": [
        {
          "internalType": "address",
          "name": "account",
          "type": "address"
        }
      ],
      "name": "getVotes",
      "outputs": [
        {
          "internalType": "uint256",
          "name": "",
          "type": "uint256"
        }
      ],
      "stateMutability": "view",
      "type": "function"
    },
    {
      "inputs": [
        {
          "internalType": "address",
          "name": "spender",
          "type": "address"
        },
        {
          "internalType": "uint256",
          "name": "addedValue",
          "type": "uint256"
        }
      ],
      "name": "increaseAllowance",
      "outputs": [
        {
          "internalType": "bool",
          "name": "",
          "type": "bool"
        }
      ],
      "stateMutability": "nonpayable",
      "type": "function"
    },
    {
      "inputs": [
        {
          "internalType": "address",
          "name": "to",
          "type": "address"
        },
        {
          "internalType": "uint256",
          "name": "amount",
          "type": "uint256"
        }
      ],
      "name": "mint",
      "outputs": [],
      "stateMutability": "nonpayable",
      "type": "function"
    },
    {
      "inputs": [],
      "name": "name",
      "outputs": [
        {
          "internalType": "string",
          "name": "",
          "type": "string"
        }
      ],
      "stateMutability": "view",
      "type": "function"
    },
    {
      "inputs": [
        {
          "internalType": "address",
          "name": "owner",
          "type": "address"
        }
      ],
      "name": "nonces",
      "outputs": [
        {
          "internalType": "uint256",
          "name": "",
          "type": "uint256"
        }
      ],
      "stateMutability": "view",
      "type": "function"
    },
    {
      "inputs": [
        {
          "internalType": "address",
          "name": "account",
          "type": "address"
        }
      ],
      "name": "numCheckpoints",
      "outputs": [
        {
          "internalType": "uint32",
          "name": "",
          "type": "uint32"
        }
      ],
      "stateMutability": "view",
      "type": "function"
    },
    {
      "inputs": [
        {
          "internalType": "address",
          "name": "owner",
          "type": "address"
        },
        {
          "internalType": "address",
          "name": "spender",
          "type": "address"
        },
        {
          "internalType": "uint256",
          "name": "value",
          "type": "uint256"
        },
        {
          "internalType": "uint256",
          "name": "deadline",
          "type": "uint256"
        },
        {
          "internalType": "uint8",
          "name": "v",
          "type": "uint8"
        },
        {
          "internalType": "bytes32",
          "name": "r",
          "type": "bytes32"
        },
        {
          "internalType": "bytes32",
          "name": "s",
          "type": "bytes32"
        }
      ],
      "name": "permit",
      "outputs": [],
      "stateMutability": "nonpayable",
      "type": "function"
    },
    {
      "inputs": [],
      "name": "symbol",
      "outputs": [
        {
          "internalType": "string",
          "name": "",
          "type": "string"
        }
      ],
      "stateMutability": "view",
      "type": "function"
    },
    {
      "inputs": [],
      "name": "totalSupply",
      "outputs": [
        {
          "internalType": "uint256",
          "name": "",
          "type": "uint256"
        }
      ],
      "stateMutability": "view",
      "type": "function"
    },
    {
      "inputs": [
        {
          "internalType": "address",
          "name": "to",
          "type": "address"
        },
        {
          "internalType": "uint256",
          "name": "amount",
          "type": "uint256"
        }
      ],
      "name": "transfer",
      "outputs": [
        {
          "internalType": "bool",
          "name": "",
          "type": "bool"
        }
      ],
      "stateMutability": "nonpayable",
      "type": "function"
    },
    {
      "inputs": [
        {
          "internalType": "address",
          "name": "from",
          "type": "address"
        },
        {
          "internalType": "address",
          "name": "to",
          "type": "address"
        },
        {
          "internalType": "uint256",
          "name": "amount",
          "type": "uint256"
        }
      ],
      "name": "transferFrom",
      "outputs": [
        {
          "internalType": "bool",
          "name": "",
          "type": "bool"
        }
      ],
      "stateMutability": "nonpayable",
      "type": "function"
    }
  ],
  "bytecode": "0x6101606040523480156200001257600080fd5b506040518060400160405280600a81526020016929a0a3a0902a37b5b2b760b11b81525080604051806040016040528060018152602001603160f81b8152506040518060400160405280600a81526020016929a0a3a0902a37b5b2b760b11b815250604051806040016040528060048152602001635341474160e01b8152508160039081620000a29190620008cb565b506004620000b18282620008cb565b50620000c3915083905060056200019a565b61012052620000d48160066200019a565b61014052815160208084019190912060e052815190820120610100524660a0526200016260e05161010051604080517f8b73c3c69bb8fe3d512ecc4cf759cc79239f7b179b0ffacaa9a75d522b39400f60208201529081019290925260608201524660808201523060a082015260009060c00160405160208183030381529060405280519060200120905090565b60805250503060c0525062000194336200017f6012600a62000aaa565b6200018e90620f424062000abb565b620001d3565b62000b76565b6000602083511015620001ba57620001b283620001e3565b9050620001cd565b81620001c78482620008cb565b5060ff90505b92915050565b620001df82826200022f565b5050565b600080829050601f815111156200021a578260405163305a27a960e01b815260040162000211919062000ad5565b60405180910390fd5b8051620002278262000b25565b179392505050565b6200023b8282620002d7565b6001600160e01b036200024f620003a48216565b1115620002b85760405162461bcd60e51b815260206004820152603060248201527f4552433230566f7465733a20746f74616c20737570706c79207269736b73206f60448201526f766572666c6f77696e6720766f74657360801b606482015260840162000211565b620002d1600b62000c26620003aa60201b1783620003bf565b50505050565b6001600160a01b0382166200032f5760405162461bcd60e51b815260206004820152601f60248201527f45524332303a206d696e7420746f20746865207a65726f206164647265737300604482015260640162000211565b806002600082825462000343919062000b4a565b90915550506001600160a01b038216600081815260208181526040808320805486019055518481527fddf252ad1be2c89b69c2b068fc378daa952ba7f163c4a11628f55a4df523b3ef910160405180910390a3620001df600083836200054c565b60025490565b6000620003b8828462000b4a565b9392505050565b825460009081908181156200040e5760008781526020902082016000190160408051808201909152905463ffffffff8116825264010000000090046001600160e01b0316602082015262000423565b60408051808201909152600080825260208201525b905080602001516001600160e01b031693506200044184868860201c565b92506000821180156200046e57506200045962000559565b65ffffffffffff16816000015163ffffffff16145b15620004b7576200047f836200056b565b60008881526020902083016000190180546001600160e01b03929092166401000000000263ffffffff9092169190911790556200053d565b866040518060400160405280620004e5620004d76200055960201b60201c565b65ffffffffffff16620005da565b63ffffffff168152602001620004fb866200056b565b6001600160e01b0390811690915282546001810184556000938452602093849020835194909301519091166401000000000263ffffffff909316929092179101555b5050935093915050565b505050565b6200054783838362000641565b6000620005664362000675565b905090565b60006001600160e01b03821115620005d65760405162461bcd60e51b815260206004820152602760248201527f53616665436173743a2076616c756520646f65736e27742066697420696e20326044820152663234206269747360c81b606482015260840162000211565b5090565b600063ffffffff821115620005d65760405162461bcd60e51b815260206004820152602660248201527f53616665436173743a2076616c756520646f65736e27742066697420696e203360448201526532206269747360d01b606482015260840162000211565b6001600160a01b038381166000908152600960205260408082205485841683529120546200054792918216911683620006de565b600065ffffffffffff821115620005d65760405162461bcd60e51b815260206004820152602660248201527f53616665436173743a2076616c756520646f65736e27742066697420696e203460448201526538206269747360d01b606482015260840162000211565b816001600160a01b0316836001600160a01b031614158015620007015750600081115b1562000547576001600160a01b038316156200078e576001600160a01b0383166000908152600a60209081526040822082916200074b919062000819901b62000c321785620003bf565b91509150846001600160a01b031660008051602062002e06833981519152838360405162000783929190918252602082015260400190565b60405180910390a250505b6001600160a01b0382161562000547576001600160a01b0382166000908152600a6020908152604082208291620007d29190620003aa901b62000c261785620003bf565b91509150836001600160a01b031660008051602062002e0683398151915283836040516200080a929190918252602082015260400190565b60405180910390a25050505050565b6000620003b8828462000b60565b634e487b7160e01b600052604160045260246000fd5b600181811c908216806200085257607f821691505b6020821081036200087357634e487b7160e01b600052602260045260246000fd5b50919050565b601f8211156200054757600081815260208120601f850160051c81016020861015620008a25750805b601f850160051c820191505b81811015620008c357828155600101620008ae565b505050505050565b81516001600160401b03811115620008e757620008e762000827565b620008ff81620008f884546200083d565b8462000879565b602080601f8311600181146200093757600084156200091e5750858301515b600019600386901b1c1916600185901b178555620008c3565b600085815260208120601f198616915b82811015620009685788860151825594840194600190910190840162000947565b5085821015620009875787850151600019600388901b60f8161c191681555b5050505050600190811b01905550565b634e487b7160e01b600052601160045260246000fd5b600181815b80851115620009ee578160001904821115620009d257620009d262000997565b80851615620009e057918102915b93841c9390800290620009b2565b509250929050565b60008262000a0757506001620001cd565b8162000a1657506000620001cd565b816001811462000a2f576002811462000a3a5762000a5a565b6001915050620001cd565b60ff84111562000a4e5762000a4e62000997565b50506001821b620001cd565b5060208310610133831016604e8410600b841016171562000a7f575081810a620001cd565b62000a8b8383620009ad565b806000190482111562000aa25762000aa262000997565b029392505050565b6000620003b860ff841683620009f6565b8082028115828204841417620001cd57620001cd62000997565b600060208083528351808285015260005b8181101562000b045785810183015185820160400152820162000ae6565b506000604082860101526040601f19601f8301168501019250505092915050565b80516020808301519190811015620008735760001960209190910360031b1b16919050565b80820180821115620001cd57620001cd62000997565b81810381811115620001cd57620001cd62000997565b60805160a05160c05160e05161010051610120516101405161223562000bd16000396000610701015260006106d6015260006110600152600061103801526000610f9301526000610fbd01526000610fe701526122356000f3fe608060405234801561001057600080fd5b50600436106101a95760003560e01c80636fcfff45116100f95780639ab24eb011610097578063c3cda52011610071578063c3cda520146103ca578063d505accf146103dd578063dd62ed3e146103f0578063f1127ed81461040357600080fd5b80639ab24eb014610391578063a457c2d7146103a4578063a9059cbb146103b757600080fd5b806384b0196e116100d357806384b0196e1461033c5780638e539e8c1461035757806391ddadf41461036a57806395d89b411461038957600080fd5b80636fcfff45146102d857806370a08231146103005780637ecebe001461032957600080fd5b8063395093511161016657806342966c681161014057806342966c68146102665780634bf5d7e914610279578063587cde1e146102815780635c19a95c146102c557600080fd5b8063395093511461022b5780633a46b1a81461023e57806340c10f191461025157600080fd5b806306fdde03146101ae578063095ea7b3146101cc57806318160ddd146101ef57806323b872dd14610201578063313ce567146102145780633644e51514610223575b600080fd5b6101b6610440565b6040516101c39190611e86565b60405180910390f35b6101df6101da366004611eb5565b6104d2565b60405190151581526020016101c3565b6002545b6040519081526020016101c3565b6101df61020f366004611edf565b6104ec565b604051601281526020016101c3565b6101f3610510565b6101df610239366004611eb5565b61051f565b6101f361024c366004611eb5565b610541565b61026461025f366004611eb5565b6105cb565b005b610264610274366004611f1b565b6105d9565b6101b66105e6565b6102ad61028f366004611f34565b6001600160a01b039081166000908152600960205260409020541690565b6040516001600160a01b0390911681526020016101c3565b6102646102d3366004611f34565b61067e565b6102eb6102e6366004611f34565b610688565b60405163ffffffff90911681526020016101c3565b6101f361030e366004611f34565b6001600160a01b031660009081526020819052604090205490565b6101f3610337366004611f34565b6106aa565b6103446106c8565b6040516101c39796959493929190611f4f565b6101f3610365366004611f1b565b610751565b6103726107b8565b60405165ffffffffffff90911681526020016101c3565b6101b66107c3565b6101f361039f366004611f34565b6107d2565b6101df6103b2366004611eb5565b610854565b6101df6103c5366004611eb5565b6108cf565b6102646103d8366004611ff6565b6108dd565b6102646103eb36600461204e565b610a13565b6101f36103fe3660046120b8565b610b77565b6104166104113660046120eb565b610ba2565b60408051825163ffffffff1681526020928301516001600160e01b031692810192909252016101c3565b60606003805461044f9061212b565b80601f016020809104026020016040519081016040528092919081815260200182805461047b9061212b565b80156104c85780601f1061049d576101008083540402835291602001916104c8565b820191906000526020600020905b8154815290600101906020018083116104ab57829003601f168201915b5050505050905090565b6000336104e0818585610c3e565b60019150505b92915050565b6000336104fa858285610d62565b610505858585610ddc565b506001949350505050565b600061051a610f86565b905090565b6000336104e08185856105328383610b77565b61053c9190612175565b610c3e565b600061054b6107b8565b65ffffffffffff1682106105a25760405162461bcd60e51b815260206004820152601960248201527804552433230566f7465733a20667574757265206c6f6f6b757603c1b60448201526064015b60405180910390fd5b6001600160a01b0383166000908152600a602052604090206105c490836110b1565b9392505050565b6105d5828261119a565b5050565b6105e333826111a4565b50565b6060436105f16107b8565b65ffffffffffff16146106465760405162461bcd60e51b815260206004820152601d60248201527f4552433230566f7465733a2062726f6b656e20636c6f636b206d6f64650000006044820152606401610599565b5060408051808201909152601d81527f6d6f64653d626c6f636b6e756d6265722666726f6d3d64656661756c74000000602082015290565b6105e333826111ae565b6001600160a01b0381166000908152600a60205260408120546104e690611227565b6001600160a01b0381166000908152600760205260408120546104e6565b6000606080828080836106fc7f00000000000000000000000000000000000000000000000000000000000000006005611290565b6107277f00000000000000000000000000000000000000000000000000000000000000006006611290565b60408051600080825260208201909252600f60f81b9b939a50919850469750309650945092509050565b600061075b6107b8565b65ffffffffffff1682106107ad5760405162461bcd60e51b815260206004820152601960248201527804552433230566f7465733a20667574757265206c6f6f6b757603c1b6044820152606401610599565b6104e6600b836110b1565b600061051a4361133b565b60606004805461044f9061212b565b6001600160a01b0381166000908152600a60205260408120548015610841576001600160a01b0383166000908152600a602052604090208054600019830190811061081f5761081f612188565b60009182526020909120015464010000000090046001600160e01b0316610844565b60005b6001600160e01b03169392505050565b600033816108628286610b77565b9050838110156108c25760405162461bcd60e51b815260206004820152602560248201527f45524332303a2064656372656173656420616c6c6f77616e63652062656c6f77604482015264207a65726f60d81b6064820152608401610599565b6105058286868403610c3e565b6000336104e0818585610ddc565b8342111561092d5760405162461bcd60e51b815260206004820152601d60248201527f4552433230566f7465733a207369676e617475726520657870697265640000006044820152606401610599565b604080517fe48329057bfd03d55e49b547132e39cffd9c1820ad7b9d4c5307691425d15adf60208201526001600160a01b0388169181019190915260608101869052608081018590526000906109a79061099f9060a001604051602081830303815290604052805190602001206113a2565b8585856113cf565b90506109b2816113f7565b8614610a005760405162461bcd60e51b815260206004820152601960248201527f4552433230566f7465733a20696e76616c6964206e6f6e6365000000000000006044820152606401610599565b610a0a81886111ae565b50505050505050565b83421115610a635760405162461bcd60e51b815260206004820152601d60248201527f45524332305065726d69743a206578706972656420646561646c696e650000006044820152606401610599565b60007f6e71edae12b1b97f4d1f60370fef10105fa2faae0126114a169c64845d6126c9888888610a928c6113f7565b6040805160208101969096526001600160a01b0394851690860152929091166060840152608083015260a082015260c0810186905260e0016040516020818303038152906040528051906020012090506000610aed826113a2565b90506000610afd828787876113cf565b9050896001600160a01b0316816001600160a01b031614610b605760405162461bcd60e51b815260206004820152601e60248201527f45524332305065726d69743a20696e76616c6964207369676e617475726500006044820152606401610599565b610b6b8a8a8a610c3e565b50505050505050505050565b6001600160a01b03918216600090815260016020908152604080832093909416825291909152205490565b60408051808201909152600080825260208201526001600160a01b0383166000908152600a60205260409020805463ffffffff8416908110610be657610be6612188565b60009182526020918290206040805180820190915291015463ffffffff8116825264010000000090046001600160e01b0316918101919091529392505050565b60006105c48284612175565b60006105c4828461219e565b6001600160a01b038316610ca05760405162461bcd60e51b8152602060048201526024808201527f45524332303a20617070726f76652066726f6d20746865207a65726f206164646044820152637265737360e01b6064820152608401610599565b6001600160a01b038216610d015760405162461bcd60e51b815260206004820152602260248201527f45524332303a20617070726f766520746f20746865207a65726f206164647265604482015261737360f01b6064820152608401610599565b6001600160a01b0383811660008181526001602090815260408083209487168084529482529182902085905590518481527f8c5be1e5ebec7d5bd14f71427d1e84f3dd0314c0f7b2291e5b200ac8c7c3b925910160405180910390a3505050565b6000610d6e8484610b77565b90506000198114610dd65781811015610dc95760405162461bcd60e51b815260206004820152601d60248201527f45524332303a20696e73756666696369656e7420616c6c6f77616e63650000006044820152606401610599565b610dd68484848403610c3e565b50505050565b6001600160a01b038316610e405760405162461bcd60e51b815260206004820152602560248201527f45524332303a207472616e736665722066726f6d20746865207a65726f206164604482015264647265737360d81b6064820152608401610599565b6001600160a01b038216610ea25760405162461bcd60e51b815260206004820152602360248201527f45524332303a207472616e7366657220746f20746865207a65726f206164647260448201526265737360e81b6064820152608401610599565b6001600160a01b03831660009081526020819052604090205481811015610f1a5760405162461bcd60e51b815260206004820152602660248201527f45524332303a207472616e7366657220616d6f756e7420657863656564732062604482015265616c616e636560d01b6064820152608401610599565b6001600160a01b03848116600081815260208181526040808320878703905593871680835291849020805487019055925185815290927fddf252ad1be2c89b69c2b068fc378daa952ba7f163c4a11628f55a4df523b3ef910160405180910390a3610dd6848484611424565b6000306001600160a01b037f000000000000000000000000000000000000000000000000000000000000000016148015610fdf57507f000000000000000000000000000000000000000000000000000000000000000046145b1561100957507f000000000000000000000000000000000000000000000000000000000000000090565b61051a604080517f8b73c3c69bb8fe3d512ecc4cf759cc79239f7b179b0ffacaa9a75d522b39400f60208201527f0000000000000000000000000000000000000000000000000000000000000000918101919091527f000000000000000000000000000000000000000000000000000000000000000060608201524660808201523060a082015260009060c00160405160208183030381529060405280519060200120905090565b81546000908181600581111561110b5760006110cc8461142f565b6110d6908561219e565b600088815260209020909150869082015463ffffffff1611156110fb57809150611109565b611106816001612175565b92505b505b8082101561115857600061111f8383611517565b600088815260209020909150869082015463ffffffff16111561114457809150611152565b61114f816001612175565b92505b5061110b565b8015611184576000868152602090208101600019015464010000000090046001600160e01b0316611187565b60005b6001600160e01b03169695505050505050565b6105d58282611532565b6105d582826115bc565b6001600160a01b038281166000818152600960208181526040808420805485845282862054949093528787166001600160a01b03198416811790915590519190951694919391928592917f3134e8a2e6d97e929a7e54011ea5485d7d196dd5f0ba4d4ef95803e8e3fc257f9190a4610dd68284836115d4565b600063ffffffff82111561128c5760405162461bcd60e51b815260206004820152602660248201527f53616665436173743a2076616c756520646f65736e27742066697420696e203360448201526532206269747360d01b6064820152608401610599565b5090565b606060ff83146112aa576112a383611711565b90506104e6565b8180546112b69061212b565b80601f01602080910402602001604051908101604052809291908181526020018280546112e29061212b565b801561132f5780601f106113045761010080835404028352916020019161132f565b820191906000526020600020905b81548152906001019060200180831161131257829003601f168201915b505050505090506104e6565b600065ffffffffffff82111561128c5760405162461bcd60e51b815260206004820152602660248201527f53616665436173743a2076616c756520646f65736e27742066697420696e203460448201526538206269747360d01b6064820152608401610599565b60006104e66113af610f86565b8360405161190160f01b8152600281019290925260228201526042902090565b60008060006113e087878787611750565b915091506113ed81611814565b5095945050505050565b6001600160a01b03811660009081526007602052604090208054600181018255905b50919050565b505050565b61141f83838361195e565b60008160000361144157506000919050565b6000600161144e84611990565b901c6001901b90506001818481611467576114676121b1565b048201901c9050600181848161147f5761147f6121b1565b048201901c90506001818481611497576114976121b1565b048201901c905060018184816114af576114af6121b1565b048201901c905060018184816114c7576114c76121b1565b048201901c905060018184816114df576114df6121b1565b048201901c905060018184816114f7576114f76121b1565b048201901c90506105c481828581611511576115116121b1565b04611a24565b600061152660028484186121c7565b6105c490848416612175565b61153c8282611a3a565b6002546001600160e01b0310156115ae5760405162461bcd60e51b815260206004820152603060248201527f4552433230566f7465733a20746f74616c20737570706c79207269736b73206f60448201526f766572666c6f77696e6720766f74657360801b6064820152608401610599565b610dd6600b610c2683611b01565b6115c68282611c76565b610dd6600b610c3283611b01565b816001600160a01b0316836001600160a01b0316141580156115f65750600081115b1561141f576001600160a01b03831615611684576001600160a01b0383166000908152600a60205260408120819061163190610c3285611b01565b91509150846001600160a01b03167fdec2bacdd2f05b59de34da9b523dff8be42e5e38e818c82fdb0bae774387a7248383604051611679929190918252602082015260400190565b60405180910390a250505b6001600160a01b0382161561141f576001600160a01b0382166000908152600a6020526040812081906116ba90610c2685611b01565b91509150836001600160a01b03167fdec2bacdd2f05b59de34da9b523dff8be42e5e38e818c82fdb0bae774387a7248383604051611702929190918252602082015260400190565b60405180910390a25050505050565b6060600061171e83611daf565b604080516020808252818301909252919250600091906020820181803683375050509182525060208101929092525090565b6000807f7fffffffffffffffffffffffffffffff5d576e7357a4501ddfe92f46681b20a0831115611787575060009050600361180b565b6040805160008082526020820180845289905260ff881692820192909252606081018690526080810185905260019060a0016020604051602081039080840390855afa1580156117db573d6000803e3d6000fd5b5050604051601f1901519150506001600160a01b0381166118045760006001925092505061180b565b9150600090505b94509492505050565b6000816004811115611828576118286121e9565b036118305750565b6001816004811115611844576118446121e9565b036118915760405162461bcd60e51b815260206004820152601860248201527f45434453413a20696e76616c6964207369676e617475726500000000000000006044820152606401610599565b60028160048111156118a5576118a56121e9565b036118f25760405162461bcd60e51b815260206004820152601f60248201527f45434453413a20696e76616c6964207369676e6174757265206c656e677468006044820152606401610599565b6003816004811115611906576119066121e9565b036105e35760405162461bcd60e51b815260206004820152602260248201527f45434453413a20696e76616c6964207369676e6174757265202773272076616c604482015261756560f01b6064820152608401610599565b6001600160a01b0383811660009081526009602052604080822054858416835291205461141f929182169116836115d4565b600080608083901c156119a557608092831c92015b604083901c156119b757604092831c92015b602083901c156119c957602092831c92015b601083901c156119db57601092831c92015b600883901c156119ed57600892831c92015b600483901c156119ff57600492831c92015b600283901c15611a1157600292831c92015b600183901c156104e65760010192915050565b6000818310611a3357816105c4565b5090919050565b6001600160a01b038216611a905760405162461bcd60e51b815260206004820152601f60248201527f45524332303a206d696e7420746f20746865207a65726f2061646472657373006044820152606401610599565b8060026000828254611aa29190612175565b90915550506001600160a01b038216600081815260208181526040808320805486019055518481527fddf252ad1be2c89b69c2b068fc378daa952ba7f163c4a11628f55a4df523b3ef910160405180910390a36105d560008383611424565b82546000908190818115611b4e5760008781526020902082016000190160408051808201909152905463ffffffff8116825264010000000090046001600160e01b03166020820152611b63565b60408051808201909152600080825260208201525b905080602001516001600160e01b03169350611b8384868863ffffffff16565b9250600082118015611bad5750611b986107b8565b65ffffffffffff16816000015163ffffffff16145b15611bf257611bbb83611dd7565b60008881526020902083016000190180546001600160e01b03929092166401000000000263ffffffff909216919091179055611c6c565b866040518060400160405280611c16611c096107b8565b65ffffffffffff16611227565b63ffffffff168152602001611c2a86611dd7565b6001600160e01b0390811690915282546001810184556000938452602093849020835194909301519091166401000000000263ffffffff909316929092179101555b5050935093915050565b6001600160a01b038216611cd65760405162461bcd60e51b815260206004820152602160248201527f45524332303a206275726e2066726f6d20746865207a65726f206164647265736044820152607360f81b6064820152608401610599565b6001600160a01b03821660009081526020819052604090205481811015611d4a5760405162461bcd60e51b815260206004820152602260248201527f45524332303a206275726e20616d6f756e7420657863656564732062616c616e604482015261636560f01b6064820152608401610599565b6001600160a01b0383166000818152602081815260408083208686039055600280548790039055518581529192917fddf252ad1be2c89b69c2b068fc378daa952ba7f163c4a11628f55a4df523b3ef910160405180910390a361141f83600084611424565b600060ff8216601f8111156104e657604051632cd44ac360e21b815260040160405180910390fd5b60006001600160e01b0382111561128c5760405162461bcd60e51b815260206004820152602760248201527f53616665436173743a2076616c756520646f65736e27742066697420696e20326044820152663234206269747360c81b6064820152608401610599565b6000815180845260005b81811015611e6657602081850181015186830182015201611e4a565b506000602082860101526020601f19601f83011685010191505092915050565b6020815260006105c46020830184611e40565b80356001600160a01b0381168114611eb057600080fd5b919050565b60008060408385031215611ec857600080fd5b611ed183611e99565b946020939093013593505050565b600080600060608486031215611ef457600080fd5b611efd84611e99565b9250611f0b60208501611e99565b9150604084013590509250925092565b600060208284031215611f2d57600080fd5b5035919050565b600060208284031215611f4657600080fd5b6105c482611e99565b60ff60f81b881681526000602060e081840152611f6f60e084018a611e40565b8381036040850152611f81818a611e40565b606085018990526001600160a01b038816608086015260a0850187905284810360c0860152855180825283870192509083019060005b81811015611fd357835183529284019291840191600101611fb7565b50909c9b505050505050505050505050565b803560ff81168114611eb057600080fd5b60008060008060008060c0878903121561200f57600080fd5b61201887611e99565b9550602087013594506040870135935061203460608801611fe5565b92506080870135915060a087013590509295509295509295565b600080600080600080600060e0888a03121561206957600080fd5b61207288611e99565b965061208060208901611e99565b9550604088013594506060880135935061209c60808901611fe5565b925060a0880135915060c0880135905092959891949750929550565b600080604083850312156120cb57600080fd5b6120d483611e99565b91506120e260208401611e99565b90509250929050565b600080604083850312156120fe57600080fd5b61210783611e99565b9150602083013563ffffffff8116811461212057600080fd5b809150509250929050565b600181811c9082168061213f57607f821691505b60208210810361141957634e487b7160e01b600052602260045260246000fd5b634e487b7160e01b600052601160045260246000fd5b808201808211156104e6576104e661215f565b634e487b7160e01b600052603260045260246000fd5b818103818111156104e6576104e661215f565b634e487b7160e01b600052601260045260246000fd5b6000826121e457634e487b7160e01b600052601260045260246000fd5b500490565b634e487b7160e01b600052602160045260246000fdfea2646970667358221220d3279a82c31dff56dc8a507ff62a5150e102b12bcd0a192c76528f6f8bb89c3864736f6c63430008140033dec2bacdd2f05b59de34da9b523dff8be42e5e38e818c82fdb0bae774387a724",
  "linkReferences": {},
  "deployedLinkReferences": {}
}